:020000040800F2
:10000000002800201D190008AD180008B3180008CA
:10001000B9180008BF180008C51800080000000043
:10002000000000000000000000000000CB180008E5
:10003000D718000800000000E3180008EF180008B7
:100040006519000865190008651900086519000898
:100050006519000865190008651900086519000888
:100060006519000865190008651900086519000878
:100070006519000865190008651900086519000868
:100080006519000865190008651900086519000858
:100090006519000865190008651900086519000848
:1000A0006519000865190008651900086519000838
:1000B000FD18000865190008000000006519000817
:1000C0006519000800000000000000006519000824
:1000D0000000000065190008651900080000000014
:1000E000651900086519000865190008000000007E
:1000F0000000000000000000000000000000000000
:0C01000000000000000000005FF808F1A3
:10010C0010B5054C237833B9044B13B10448AFF345
:10011C0000800123237010BD380000200000000077
:10012C00342F000808B5034B1BB103490348AFF348
:10013C00008008BD000000003C000020342F0008A7
:10014C0080B582B000AF78607B68072B01F21C8011
:10015C0001A252F823F000BF8501000889030008B2
:10016C008D0500089107000895090008950B0008FB
:10017C00950D0008950F00087C4A7B6813441B788A
:10018C0003F00103002B0CBF01230023DBB21A4642
:10019C004FF48071764801F0CBFE744A7B681344AF
:1001AC001B7803F00203002B0CBF01230023DBB2EE
:1001BC001A464FF400716E4801F0BAFE6B4A7B6828
:1001CC0013441B7803F00403002B0CBF0123002302
:1001DC00DBB21A464FF48061654801F0A9FE634A10
:1001EC007B6813441B7803F00803002B0CBF01231E
:1001FC000023DBB21A464FF400615D4801F098FE13
:10020C005A4A7B6813441B7803F01003002B0CBF75
:10021C0001230023DBB21A464FF48051544801F0FD
:10022C0087FE524A7B6813441B7803F02003002B93
:10023C000CBF01230023DBB21A464FF400514C488B
:10024C0001F076FE494A7B6813441B7803F04003A7
:10025C00002B0CBF01230023DBB21A464FF4804164
:10026C00434801F065FE414A7B6813441B785BB23E
:10027C00DB43DBB2DB09DBB21A464FF400413C48EE
:10028C0001F056FE3B4A7B6813441B78DB09DBB25A
:10029C001A460421384801F04BFE364A7B68134459
:1002AC001B789B09DBB203F00103DBB21A46082171
:1002BC00314801F03DFE2F4A7B6813441B785B09E3
:1002CC00DBB203F00103DBB21A464FF480612A481B
:1002DC0001F02EFE274A7B6813441B781B09DBB206
:1002EC0003F00103DBB21A464FF40061224801F01F
:1002FC001FFE204A7B6813441B78DB08DBB203F03B
:10030C000103DBB21A464FF480511B4801F010FE7A
:10031C00184A7B6813441B789B08DBB203F001037B
:10032C00DBB21A464FF40051134801F001FE114A9A
:10033C007B6813441B785B08DBB203F00103DBB270
:10034C001A464FF480410C4801F0F2FD094A7B68D3
:10035C0013441B7803F00103DBB21A464FF400413F
:10036C00054801F0E5FD01F007B800BF18000020BA
:10037C00000C014010000020000801407C4A7B6802
:10038C0013441B7803F00103002B0CBF0123002343
:10039C00DBB21A464FF48071764801F0C9FD744AFD
:1003AC007B6813441B7803F00203002B0CBF012362
:1003BC000023DBB21A464FF400716E4801F0B8FD11
:1003CC006B4A7B6813441B7803F00403002B0CBFAF
:1003DC0001230023DBB21A464FF48061654801F01B
:1003EC00A7FD634A7B6813441B7803F00803002BBA
:1003FC000CBF01230023DBB21A464FF400615D48A9
:10040C0001F096FD5A4A7B6813441B7803F01003E5
:10041C00002B0CBF01230023DBB21A464FF4805192
:10042C00544801F085FD524A7B6813441B7803F055
:10043C002003002B0CBF01230023DBB21A464FF420
:10044C0000514C4801F074FD494A7B6813441B78F9
:10045C0003F04003002B0CBF01230023DBB21A4630
:10046C004FF48041434801F063FD414A7B681344DB
:10047C001B785BB2DB43DBB2DB09DBB21A464FF411
:10048C0000413C4801F054FD3B4A7B6813441B7807
:10049C00DB09DBB21A460421384801F049FD364A23
:1004AC007B6813441B789B09DBB203F00103DBB2BE
:1004BC001A460821314801F03BFD2F4A7B68134452
:1004CC001B785B09DBB203F00103DBB21A464FF475
:1004DC0080612A4801F02CFD274A7B6813441B7865
:1004EC001B09DBB203F00103DBB21A464FF40061C7
:1004FC00224801F01DFD204A7B6813441B78DB0861
:10050C00DBB203F00103DBB21A464FF480511B48F7
:10051C0001F00EFD184A7B6813441B789B08DBB274
:10052C0003F00103DBB21A464FF40051134801F0FB
:10053C00FFFC114A7B6813441B785B08DBB203F0A9
:10054C000103DBB21A464FF480410C4801F0F0FC79
:10055C00094A7B6813441B7803F00103DBB21A468B
:10056C004FF40041054801F0E3FC00F005BF00BF6B
:10057C0018000020000C0140100000200008014071
:10058C007C4A7B6813441B7803F00103002B0CBFDF
:10059C0001230023DBB21A464FF48071764801F038
:1005AC00C7FC744A7B6813441B7803F00203002BCE
:1005BC000CBF01230023DBB21A464FF400716E48C6
:1005CC0001F0B6FC6B4A7B6813441B7803F0040300
:1005DC00002B0CBF01230023DBB21A464FF48061C1
:1005EC00654801F0A5FC634A7B6813441B7803F053
:1005FC000803002B0CBF01230023DBB21A464FF477
:10060C0000615D4801F094FC5A4A7B6813441B78E6
:10061C0003F01003002B0CBF01230023DBB21A469E
:10062C004FF48051544801F083FC524A7B681344C8
:10063C001B7803F02003002B0CBF01230023DBB23B
:10064C001A464FF400514C4801F072FC494A7B6841
:10065C0013441B7803F04003002B0CBF0123002331
:10066C00DBB21A464FF48041434801F061FC414A29
:10067C007B6813441B785BB2DB43DBB2DB09DBB278
:10068C001A464FF400413C4801F052FC3B4A7B684F
:10069C0013441B78DB09DBB21A460421384801F0FD
:1006AC0047FC364A7B6813441B789B09DBB203F08A
:1006BC000103DBB21A460821314801F039FC2F4AFC
:1006CC007B6813441B785B09DBB203F00103DBB2DC
:1006DC001A464FF480612A4801F02AFC274A7B68AD
:1006EC0013441B781B09DBB203F00103DBB21A467F
:1006FC004FF40061224801F01BFC204A7B68134434
:10070C001B78DB08DBB203F00103DBB21A464FF4B3
:10071C0080511B4801F00CFC184A7B6813441B7871
:10072C009B08DBB203F00103DBB21A464FF4005115
:10073C00134801F0FDFB114A7B6813441B785B08DE
:10074C00DBB203F00103DBB21A464FF480410C48D4
:10075C0001F0EEFB094A7B6813441B7803F001039C
:10076C00DBB21A464FF40041054801F0E1FB00F002
:10077C0003BE00BF18000020000C01401000002038
:10078C00000801407C4A7B6813441B7803F001038A
:10079C00002B0CBF01230023DBB21A464FF48071EF
:1007AC00764801F0C5FB744A7B6813441B7803F050
:1007BC000203002B0CBF01230023DBB21A464FF4BB
:1007CC0000716E4801F0B4FB6B4A7B6813441B78D4
:1007DC0003F00403002B0CBF01230023DBB21A46E9
:1007EC004FF48061654801F0A3FB634A7B681344B6
:1007FC001B7803F00803002B0CBF01230023DBB292
:10080C001A464FF400615D4801F092FB5A4A7B682E
:10081C0013441B7803F01003002B0CBF012300239F
:10082C00DBB21A464FF48051544801F081FB524A16
:10083C007B6813441B7803F02003002B0CBF0123AF
:10084C000023DBB21A464FF400514C4801F070FB08
:10085C00494A7B6813441B7803F04003002B0CBF00
:10086C0001230023DBB21A464FF48041434801F0C8
:10087C005FFB414A7B6813441B785BB2DB43DBB202
:10088C00DB09DBB21A464FF400413C4801F050FB47
:10089C003B4A7B6813441B78DB09DBB21A46042104
:1008AC00384801F045FB364A7B6813441B789B099A
:1008BC00DBB203F00103DBB21A460821314801F028
:1008CC0037FB2F4A7B6813441B785B09DBB203F0C0
:1008DC000103DBB21A464FF480612A4801F028FB71
:1008EC00274A7B6813441B781B09DBB203F0010316
:1008FC00DBB21A464FF40061224801F019FB204A82
:10090C007B6813441B78DB08DBB203F00103DBB21A
:10091C001A464FF480511B4801F00AFB184A7B68B9
:10092C0013441B789B08DBB203F00103DBB21A46BD
:10093C004FF40051134801F0FBFA114A7B68134441
:10094C001B785B08DBB203F00103DBB21A464FF4F1
:10095C0080410C4801F0ECFA094A7B6813441B787F
:10096C0003F00103DBB21A464FF40041054801F0D5
:10097C00DFFA00F001BD00BF18000020000C0140A0
:10098C0010000020000801407B4A7B6813441B7850
:10099C0003F00103002B0CBF01230023DBB21A462A
:1009AC004FF48071754801F0C3FA734A7B681344A5
:1009BC001B7803F00203002B0CBF01230023DBB2D6
:1009CC001A464FF400716D4801F0B2FA6A4A7B681E
:1009DC0013441B7803F00403002B0CBF01230023EA
:1009EC00DBB21A464FF48061644801F0A1FA624A06
:1009FC007B6813441B7803F00803002B0CBF012306
:100A0C000023DBB21A464FF400615C4801F090FA07
:100A1C00594A7B6813441B7803F01003002B0CBF5E
:100A2C0001230023DBB21A464FF48051534801F0E6
:100A3C007FFA514A7B6813441B7803F02003002B88
:100A4C000CBF01230023DBB21A464FF400514B4874
:100A5C0001F06EFA484A7B6813441B7803F040039C
:100A6C00002B0CBF01230023DBB21A464FF480414C
:100A7C00424801F05DFA404A7B6813441B785BB234
:100A8C00DB43DBB2DB09DBB21A464FF400413B48D7
:100A9C0001F04EFA3A4A7B6813441B78DB09DBB24F
:100AAC001A460421374801F043FA354A7B6813444F
:100ABC001B789B09DBB203F00103DBB21A46082159
:100ACC00304801F035FA2E4A7B6813441B785B09D9
:100ADC00DBB203F00103DBB21A464FF48061294804
:100AEC0001F026FA264A7B6813441B781B09DBB2FB
:100AFC0003F00103DBB21A464FF40061214801F008
:100B0C0017FA1F4A7B6813441B78DB08DBB203F02F
:100B1C000103DBB21A464FF480511A4801F008FA6F
:100B2C00174A7B6813441B789B08DBB203F0010364
:100B3C00DBB21A464FF40051124801F0F9F9104A91
:100B4C007B6813441B785B08DBB203F00103DBB258
:100B5C001A464FF480410B4801F0EAF9084A7B68C9
:100B6C0013441B7803F00103DBB21A464FF4004127
:100B7C00044801F0DDF9FFE318000020000C0140EF
:100B8C0010000020000801407B4A7B6813441B784E
:100B9C0003F00103002B0CBF01230023DBB21A4628
:100BAC004FF48071754801F0C3F9734A7B681344A4
:100BBC001B7803F00203002B0CBF01230023DBB2D4
:100BCC001A464FF400716D4801F0B2F96A4A7B681D
:100BDC0013441B7803F00403002B0CBF01230023E8
:100BEC00DBB21A464FF48061644801F0A1F9624A05
:100BFC007B6813441B7803F00803002B0CBF012304
:100C0C000023DBB21A464FF400615C4801F090F906
:100C1C00594A7B6813441B7803F01003002B0CBF5C
:100C2C0001230023DBB21A464FF48051534801F0E4
:100C3C007FF9514A7B6813441B7803F02003002B87
:100C4C000CBF01230023DBB21A464FF400514B4872
:100C5C0001F06EF9484A7B6813441B7803F040039B
:100C6C00002B0CBF01230023DBB21A464FF480414A
:100C7C00424801F05DF9404A7B6813441B785BB233
:100C8C00DB43DBB2DB09DBB21A464FF400413B48D5
:100C9C0001F04EF93A4A7B6813441B78DB09DBB24E
:100CAC001A460421374801F043F9354A7B6813444E
:100CBC001B789B09DBB203F00103DBB21A46082157
:100CCC00304801F035F92E4A7B6813441B785B09D8
:100CDC00DBB203F00103DBB21A464FF48061294802
:100CEC0001F026F9264A7B6813441B781B09DBB2FA
:100CFC0003F00103DBB21A464FF40061214801F006
:100D0C0017F91F4A7B6813441B78DB08DBB203F02E
:100D1C000103DBB21A464FF480511A4801F008F96E
:100D2C00174A7B6813441B789B08DBB203F0010362
:100D3C00DBB21A464FF40051124801F0F9F8104A90
:100D4C007B6813441B785B08DBB203F00103DBB256
:100D5C001A464FF480410B4801F0EAF8084A7B68C8
:100D6C0013441B7803F00103DBB21A464FF4004125
:100D7C00044801F0DDF8FFE218000020000C0140EF
:100D8C0010000020000801407B4A7B6813441B784C
:100D9C0003F00103002B0CBF01230023DBB21A4626
:100DAC004FF48071754801F0C3F8734A7B681344A3
:100DBC001B7803F00203002B0CBF01230023DBB2D2
:100DCC001A464FF400716D4801F0B2F86A4A7B681C
:100DDC0013441B7803F00403002B0CBF01230023E6
:100DEC00DBB21A464FF48061644801F0A1F8624A04
:100DFC007B6813441B7803F00803002B0CBF012302
:100E0C000023DBB21A464FF400615C4801F090F805
:100E1C00594A7B6813441B7803F01003002B0CBF5A
:100E2C0001230023DBB21A464FF48051534801F0E2
:100E3C007FF8514A7B6813441B7803F02003002B86
:100E4C000CBF01230023DBB21A464FF400514B4870
:100E5C0001F06EF8484A7B6813441B7803F040039A
:100E6C00002B0CBF01230023DBB21A464FF4804148
:100E7C00424801F05DF8404A7B6813441B785BB232
:100E8C00DB43DBB2DB09DBB21A464FF400413B48D3
:100E9C0001F04EF83A4A7B6813441B78DB09DBB24D
:100EAC001A460421374801F043F8354A7B6813444D
:100EBC001B789B09DBB203F00103DBB21A46082155
:100ECC00304801F035F82E4A7B6813441B785B09D7
:100EDC00DBB203F00103DBB21A464FF48061294800
:100EEC0001F026F8264A7B6813441B781B09DBB2F9
:100EFC0003F00103DBB21A464FF40061214801F004
:100F0C0017F81F4A7B6813441B78DB08DBB203F02D
:100F1C000103DBB21A464FF480511A4801F008F86D
:100F2C00174A7B6813441B789B08DBB203F0010360
:100F3C00DBB21A464FF40051124800F0F9FF104A88
:100F4C007B6813441B785B08DBB203F00103DBB254
:100F5C001A464FF480410B4800F0EAFF084A7B68C0
:100F6C0013441B7803F00103DBB21A464FF4004123
:100F7C00044800F0DDFFFFE118000020000C0140E8
:100F8C0010000020000801407B4A7B6813441B784A
:100F9C0003F00103002B0CBF01230023DBB21A4624
:100FAC004FF48071754800F0C3FF734A7B6813449B
:100FBC001B7803F00203002B0CBF01230023DBB2D0
:100FCC001A464FF400716D4800F0B2FF6A4A7B6814
:100FDC0013441B7803F00403002B0CBF01230023E4
:100FEC00DBB21A464FF48061644800F0A1FF624AFC
:100FFC007B6813441B7803F00803002B0CBF012300
:10100C000023DBB21A464FF400615C4800F090FFFD
:10101C00594A7B6813441B7803F01003002B0CBF58
:10102C0001230023DBB21A464FF48051534800F0E1
:10103C007FFF514A7B6813441B7803F02003002B7D
:10104C000CBF01230023DBB21A464FF400514B486E
:10105C0000F06EFF484A7B6813441B7803F0400392
:10106C00002B0CBF01230023DBB21A464FF4804146
:10107C00424800F05DFF404A7B6813441B785BB22A
:10108C00DB43DBB2DB09DBB21A464FF400413B48D1
:10109C0000F04EFF3A4A7B6813441B78DB09DBB245
:1010AC001A460421374800F043FF354A7B68134445
:1010BC001B789B09DBB203F00103DBB21A46082153
:1010CC00304800F035FF2E4A7B6813441B785B09CF
:1010DC00DBB203F00103DBB21A464FF480612948FE
:1010EC0000F026FF264A7B6813441B781B09DBB2F1
:1010FC0003F00103DBB21A464FF40061214800F003
:10110C0017FF1F4A7B6813441B78DB08DBB203F024
:10111C000103DBB21A464FF480511A4800F008FF65
:10112C00174A7B6813441B789B08DBB203F001035E
:10113C00DBB21A464FF40051124800F0F9FE104A87
:10114C007B6813441B785B08DBB203F00103DBB252
:10115C001A464FF480410B4800F0EAFE084A7B68BF
:10116C0013441B7803F00103DBB21A464FF4004121
:10117C00044800F0DDFEFFE018000020000C0140E8
:10118C0010000020000801407D4A7B6813441B7846
:10119C0003F00103002B0CBF01230023DBB21A4622
:1011AC004FF48071774800F0C3FE754A7B68134496
:1011BC001B7803F00203002B0CBF01230023DBB2CE
:1011CC001A464FF400716F4800F0B2FE6C4A7B680F
:1011DC0013441B7803F00403002B0CBF01230023E2
:1011EC00DBB21A464FF48061664800F0A1FE644AF7
:1011FC007B6813441B7803F00803002B0CBF0123FE
:10120C000023DBB21A464FF400615E4800F090FEFA
:10121C005B4A7B6813441B7803F01003002B0CBF54
:10122C0001230023DBB21A464FF48051554800F0DD
:10123C007FFE534A7B6813441B7803F02003002B7A
:10124C000CBF01230023DBB21A464FF400514D486A
:10125C0000F06EFE4A4A7B6813441B7803F040038F
:10126C00002B0CBF01230023DBB21A464FF4804144
:10127C00444800F05DFE424A7B6813441B785BB225
:10128C00DB43DBB2DB09DBB21A464FF400413D48CD
:10129C0000F04EFE3C4A7B6813441B78DB09DBB242
:1012AC001A460421394800F043FE374A7B68134440
:1012BC001B789B09DBB203F00103DBB21A46082151
:1012CC00324800F035FE304A7B6813441B785B09CA
:1012DC00DBB203F00103DBB21A464FF480612B48FA
:1012EC0000F026FE284A7B6813441B781B09DBB2EE
:1012FC0003F00103DBB21A464FF40061234800F0FF
:10130C0017FE214A7B6813441B78DB08DBB203F021
:10131C000103DBB21A464FF480511C4800F008FE62
:10132C00194A7B6813441B789B08DBB203F001035A
:10133C00DBB21A464FF40051144800F0F9FD124A82
:10134C007B6813441B785B08DBB203F00103DBB250
:10135C001A464FF480410D4800F0EAFD0A4A7B68BA
:10136C0013441B7803F00103DBB21A464FF400411F
:10137C00064800F0DDFD00BF00BF0837BD4680BD4C
:10138C0018000020000C0140100000200008014053
:10139C0080B483B000AF0E4B1B78FB7000237B60D6
:1013AC000BE07B6801330A4AD15C094A7B68134421
:1013BC000A461A707B6801337B607B68062BF0DD74
:1013CC00034AFB78D37100BF0C37BD4680BC704715
:1013DC001000002080B582B000AF00F0BFFA00F022
:1013EC003DF800F0C3F800F075F8184801F0E4F986
:1013FC0001222021164800F09BFD0A2000F05CF928
:10140C00C82000F073F900237B6000F00FF9114B3A
:10141C001B68012B0FD17868FEF792FE7B680133B5
:10142C005A4203F0070302F0070258BF53427B6095
:10143C000A2000F041F9084B1B68012BE7D1FFF79C
:10144C00A7FFC82000F052F9E1E700BF7C000020A4
:10145C0000080140580000207000002080B590B0BA
:10146C0000AF07F1180328220021184601F054FDA3
:10147C003B1D00221A605A609A60DA601A610223DE
:10148C00BB610123BB621023FB6200237B6307F16A
:10149C001803184600F064FD0346002B01D000F041
:1014AC0005F90F237B600023BB600023FB60002346
:1014BC003B6100237B613B1D0021184600F0D0FFEF
:1014CC000346002B01D000F0F1F800BF4037BD46B9
:1014DC0080BD000080B586B000AF07F10803002284
:1014EC001A605A609A60DA603B4600221A605A60B1
:1014FC001D4B4FF080421A601B4B41F63F725A60F5
:10150C00194B00229A60184B0922DA60164B002204
:10151C001A61154B00229A61134801F0FDF803463D
:10152C00002B01D000F0C2F84FF48053BB6007F1E0
:10153C00080319460C4801F07BFA0346002B01D036
:10154C0000F0B4F800233B6000237B603B46194657
:10155C00054801F053FC0346002B01D000F0A6F81F
:10156C0000BF1837BD4680BD7C00002080B586B01A
:10157C0000AF07F1080300221A605A609A60DA6023
:10158C00224B9B69214A43F0040393611F4B9B69D7
:10159C0003F004037B607B681C4B9B691B4A43F084
:1015AC0008039361194B9B6903F008033B603B688C
:1015BC0000224FF6FC71164800F0BAFC00224FF6E0
:1015CC007F71144800F0B4FC4FF6FC73BB60012330
:1015DC00FB6000233B6102237B6107F10803194682
:1015EC000B4800F02BFB4FF67F73BB600123FB60B5
:1015FC0000233B6102237B6107F108031946054870
:10160C0000F01CFB00BF1837BD4680BD0010024027
:10161C0000080140000C014080B582B000AF78603A
:10162C0000F07EF800BF0837BD4680BD80B400AF27
:10163C001A4B1B681A4A82FB03129210DB17D31A3F
:10164C00184A1360154B1968154B83FB01239A102C
:10165C00CB17D21A13469B0013445B00CA1A114BCA
:10166C005A60114B1B680E4A82FB03129210DB1757
:10167C00D31A0C4A93600C4B1968094B83FB01235A
:10168C009A10CB17D21A13469B0013445B00CA1A4C
:10169C00044BDA6000BFBD4680BC704720000020C0
:1016AC0067666666000000202400002080B400AF4E
:1016BC0072B600BFFEE7000080B483B000AF786064
:1016CC00074B1B687A6892FBF3F3064A1360064BD0
:1016DC0000221A6000BF0C37BD4680BC704700BFAB
:1016EC0028000020540000205800002080B483B053
:1016FC0000AF7860074B1B687A6892FBF3F3064ADD
:10170C001360064B00221A6000BF0C37BD4680BC2C
:10171C00704700BF280000206C00002070000020E3
:10172C0080B400AF294B1B68002B0BDD274B1B68CB
:10173C00013B264A1360254B1B68002B02D1244B1E
:10174C0001221A60234B1B68002B0BDD214B1B68FD
:10175C00013B204A13601F4B1B68002B02D11E4B10
:10176C0001221A601D4B1B68002B0BDD1B4B1B68E9
:10177C00013B1A4A1360194B1B68002B02D1184B02
:10178C0001221A60174B1B68002B0BDD154B1B68D5
:10179C00013B144A1360134B1B68002B02D1124BF4
:1017AC0001221A60114B1B68002B0BDD0F4B1B68C1
:1017BC00013B0E4A13600D4B1B68002B02D10C4BE6
:1017CC0001221A6000BFBD4680BC70475400002047
:1017DC00580000205C000020600000206400002005
:1017EC00680000206C0000207000002074000020B5
:1017FC007800002080B485B000AF154B9B69144A6B
:10180C0043F001039361124B9B6903F00103BB602E
:10181C00BB680F4BDB690E4A43F08053D3610C4B12
:10182C00DB6903F080537B607B680A4B5B68FB6071
:10183C00FB6823F0E063FB60FB6843F08063FB60B4
:10184C00044AFB68536000BF1437BD4680BC704728
:10185C00001002400000014080B584B000AF7860F9
:10186C007B681B68B3F1804F13D10C4BDB690B4ABF
:10187C0043F00103D361094BDB6903F00103FB6007
:10188C00FB68002200211C2000F0A1F91C2000F0B4
:10189C00BAF900BF1037BD4680BD00BF0010024032
:1018AC0080B400AFFEE780B400AFFEE780B400AFB9
:1018BC00FEE780B400AFFEE780B400AFFEE780B473
:1018CC0000AF00BFBD4680BC704780B400AF00BF06
:1018DC00BD4680BC704780B400AF00BFBD4680BC25
:1018EC00704780B500AF00F07FF800BF80BD0000EE
:1018FC0080B500AF024800F0ABFF00BF80BD00BF59
:10190C007C00002080B400AF00BFBD4680BC704797
:10191C00FFF7F8FF0B480C490C4A002302E0D4589F
:10192C00C4500433C4188C42F9D3094A094C00231F
:10193C0001E013600432A242FBD301F0C9FAFFF7B5
:10194C0049FD70470000002038000020782F000867
:10195C0038000020C8000020FEE7000080B500AF72
:10196C00084B1B68074A43F010031360032000F078
:10197C0023F90F2000F008F8FFF73CFF002318466E
:10198C0080BD00BF0020024080B582B000AF7860FF
:10199C00124B1A68124B1B7819464FF47A73B3FB2F
:1019AC00F1F3B2FBF3F3184600F03BF90346002BBE
:1019BC0001D001230EE07B680F2B0AD80022796836
:1019CC004FF0FF3000F003F9064A7B6813600023E8
:1019DC0000E0012318460837BD4680BD2C000020CE
:1019EC00340000203000002080B400AF054B1B7881
:1019FC001A46054B1B681344034A136000BFBD46CF
:101A0C0080BC704734000020C400002080B400AFBC
:101A1C00024B1B681846BD4680BC7047C4000020B2
:101A2C0080B485B000AF78607B6803F00703FB607F
:101A3C000C4BDB68BB60BA684FF6FF031340BB600E
:101A4C00FB681A02BB68134343F0BF6343F40033D3
:101A5C00BB60044ABB68D36000BF1437BD4680BC72
:101A6C00704700BF00ED00E080B400AF044BDB68B2
:101A7C001B0A03F007031846BD4680BC704700BF25
:101A8C0000ED00E080B483B000AF0346FB7197F922
:101A9C000730002B0BDBFB7903F01F02064997F98B
:101AAC0007305B09012000FA02F241F8232000BF45
:101ABC000C37BD4680BC704700E100E080B483B0B9
:101ACC0000AF03463960FB7197F90730002B0ADB36
:101ADC003B68DAB20C4997F907301201D2B20B44C9
:101AEC0083F800230AE03B68DAB20849FB7903F07B
:101AFC000F03043B1201D2B20B441A7600BF0C3711
:101B0C00BD4680BC704700BF00E100E000ED00E086
:101B1C0080B489B000AFF860B9607A60FB6803F0FC
:101B2C000703FB61FB69C3F10703042B28BF0423E4
:101B3C00BB61FB690433062B02D9FB69033B00E054
:101B4C0000237B614FF0FF32BB6902FA03F3DA43E7
:101B5C00BB681A407B699A404FF0FF317B6901FAF0
:101B6C0003F3D9437B680B40134318462437BD4617
:101B7C0080BC704780B582B000AF78607B68013B59
:101B8C00B3F1807F01D301230FE00A4A7B68013B4C
:101B9C0053600F214FF0FF30FFF790FF054B0022F1
:101BAC009A60044B07221A60002318460837BD467A
:101BBC0080BD00BF10E000E080B582B000AF78605F
:101BCC007868FFF72DFF00BF0837BD4680BD80B594
:101BDC0086B000AF0346B9607A60FB7300237B616B
:101BEC00FFF742FF78617A68B9687869FFF790FF70
:101BFC00024697F90F3011461846FFF75FFF00BFFA
:101C0C001837BD4680BD80B582B000AF0346FB716E
:101C1C0097F907301846FFF735FF00BF0837BD4668
:101C2C0080BD80B582B000AF78607868FFF7A2FF06
:101C3C00034618460837BD4680BD000080B48BB003
:101C4C0000AF7860396000237B6200233B6248E17F
:101C5C0001227B6A02FA03F3FB613B681B68FA6999
:101C6C001340BB61BA69FB699A4240F037813B680B
:101C7C005B68A34A93425ED0A14A934275D8A14AAD
:101C8C00934258D09F4A93426FD89F4A934252D066
:101C9C009D4A934269D89D4A93424CD09B4A9342A9
:101CAC0063D89B4A934246D0994A93425DD8122BF3
:101CBC002AD8122B59D801A252F823F0431D000840
:101CCC001D1D00082F1D0008711D0008771D000840
:101CDC00771D0008771D0008771D0008771D000888
:101CEC00771D0008771D0008771D0008771D000878
:101CFC00771D0008771D0008771D0008771D000868
:101D0C00251D0008391D0008824A934213D02CE08F
:101D1C003B68DB683B6229E03B68DB6804333B6271
:101D2C0024E03B68DB6808333B621FE03B68DB6800
:101D3C000C333B621AE03B689B68002B02D10423F6
:101D4C003B6213E03B689B68012B05D108233B6287
:101D5C007B68FA691A6109E008233B627B68FA69BF
:101D6C005A6103E000233B6200E000BFBB69FF2B1C
:101D7C0001D87B6801E07B6804337B61BB69FF2B76
:101D8C0002D87B6A9B0002E07B6A083B9B003B61AC
:101D9C007B691A680F213B6901FA03F3DB431A4094
:101DAC00396A3B6901FA03F31A437B691A603B6891
:101DBC005B6803F08053002B00F09080564B9B69BE
:101DCC00554A43F001039361534B9B6903F00103A4
:101DDC00BB60BB68514A7B6A9B08023352F82330C4
:101DEC00FB607B6A03F003039B000F2202FA03F3F0
:101DFC00DB43FA681340FB607B68494A93420DD081
:101E0C007B68484A934207D07B68474A934201D18A
:101E1C00022304E0032302E0012300E000237A6A9A
:101E2C0002F0030292009340FA681343FB603B49B3
:101E3C007B6A9B080233FA6841F823203B685B6895
:101E4C0003F48013002B06D0384B9A683749BB69D2
:101E5C0013438B6006E0354B9A68BB69DB4333490F
:101E6C0013408B603B685B6803F40013002B06D0B7
:101E7C002E4BDA682D49BB691343CB6006E02B4B24
:101E8C00DA68BB69DB4329491340CB603B685B686C
:101E9C0003F40033002B06D0244B5A682349BB694A
:101EAC0013434B6006E0214B5A68BB69DB431F4967
:101EBC0013404B603B685B6803F48033002B06D007
:101ECC001A4B1A681949BB6913430B6006E0174B90
:101EDC001A68BB69DB43154913400B607B6A0133FD
:101EEC007B623B681A687B6A22FA03F3002B7FF44F
:101EFC00AFAE00BF00BF2C37BD4680BC704700BFE3
:101F0C0000003210000031100000221000002110DF
:101F1C0000001210000011100010024000000140DF
:101F2C0000080140000C0140001001400004014079
:101F3C0080B483B000AF78600B467B8013467B7017
:101F4C007B78002B03D07A887B681A6103E07B884E
:101F5C001A047B681A6100BF0C37BD4680BC704701
:101F6C0080B586B000AF78607B68002B01D101236F
:101F7C006CE27B681B6803F00103002B00F0878088
:101F8C00924B5B6803F00C03042B0CD08F4B5B68FB
:101F9C0003F00C03082B12D18C4B5B6803F48033D9
:101FAC00B3F5803F0BD1894B1B6803F40033002B36
:101FBC006CD07B685B68002B68D1012346E27B68A0
:101FCC005B68B3F5803F06D1804B1B687F4A43F4B6
:101FDC00803313602EE07B685B68002B0CD17B4B4D
:101FEC001B687A4A23F480331360784B1B68774A5A
:101FFC0023F4802313601DE07B685B68B3F5A02F8E
:10200C000CD1724B1B68714A43F4802313606F4BE5
:10201C001B686E4A43F4803313600BE06B4B1B68F8
:10202C006A4A23F480331360684B1B68674A23F4B5
:10203C00802313607B685B68002B13D0FFF7E6FCF2
:10204C00386108E0FFF7E2FC02463B69D31A642BC7
:10205C0001D90323FAE15D4B1B6803F40033002B19
:10206C00F0D014E0FFF7D2FC386108E0FFF7CEFCAB
:10207C0002463B69D31A642B01D90323E6E1534B87
:10208C001B6803F40033002BF0D100E000BF7B6829
:10209C001B6803F00203002B63D04C4B5B6803F00E
:1020AC000C03002B0BD0494B5B6803F00C03082B83
:1020BC001CD1464B5B6803F48033002B16D1434B89
:1020CC001B6803F00203002B05D07B681B69012BF6
:1020DC0001D00123BAE13D4B1B6823F0F8027B6869
:1020EC005B69DB00394913430B603AE07B681B6981
:1020FC00002B20D0364B01221A60FFF787FC386189
:10210C0008E0FFF783FC02463B69D31A022B01D986
:10211C0003239BE12D4B1B6803F00203002BF0D033
:10212C002A4B1B6823F0F8027B685B69DB002749AC
:10213C0013430B6015E0264B00221A60FFF766FC78
:10214C00386108E0FFF762FC02463B69D31A022BA8
:10215C0001D903237AE11D4B1B6803F00203002B0A
:10216C00F0D17B681B6803F00803002B3AD07B6826
:10217C009B69002B19D0174B01221A60FFF746FC04
:10218C00386108E0FFF742FC02463B69D31A022B88
:10219C0001D903235AE10D4B5B6A03F00203002BB8
:1021AC00F0D0012000F09AFA1CE00A4B00221A60D1
:1021BC00FFF72CFC38610FE0FFF728FC02463B6967
:1021CC00D31A022B08D9032340E100BF00100240B0
:1021DC0000004242800442429E4B5B6A03F00203C1
:1021EC00002BE9D17B681B6803F00403002B00F083
:1021FC00A6800023FB75974BDB6903F08053002B03
:10220C000DD1944BDB69934A43F08053D361914BCE
:10221C00DB6903F08053BB60BB680123FB758E4BFD
:10222C001B6803F48073002B18D18B4B1B688A4AF4
:10223C0043F480731360FFF7E9FB386108E0FFF7A4
:10224C00E5FB02463B69D31A642B01D90323FDE05D
:10225C00814B1B6803F48073002BF0D07B68DB6828
:10226C00012B06D17B4B1B6A7A4A43F001031362A4
:10227C002DE07B68DB68002B0CD1764B1B6A754A12
:10228C0023F001031362734B1B6A724A23F004039D
:10229C0013621CE07B68DB68052B0CD16D4B1B6A51
:1022AC006C4A43F0040313626A4B1B6A694A43F09D
:1022BC00010313620BE0674B1B6A664A23F00103B0
:1022CC001362644B1B6A634A23F0040313627B683A
:1022DC00DB68002B15D0FFF799FB38610AE0FFF79C
:1022EC0095FB02463B69D31A41F28832934201D9DD
:1022FC000323ABE0574B1B6A03F00203002BEED019
:10230C0014E0FFF783FB38610AE0FFF77FFB02461E
:10231C003B69D31A41F28832934201D9032395E0E9
:10232C004C4B1B6A03F00203002BEED1FB7D012BFF
:10233C0005D1484BDB69474A23F08053D3617B6856
:10234C00DB69002B00F08180424B5B6803F00C03CF
:10235C00082B61D07B68DB69022B46D13F4B0022F6
:10236C001A60FFF753FB386108E0FFF74FFB02469A
:10237C003B69D31A022B01D9032367E0354B1B6849
:10238C0003F00073002BF0D17B681B6AB3F5803F20
:10239C0008D1304B5B6823F400327B689B682D4975
:1023AC0013434B602B4B5B6823F474127B68196AE4
:1023BC007B685B6A0B43274913434B60274B012215
:1023CC001A60FFF723FB386108E0FFF71FFB02469A
:1023DC003B69D31A022B01D9032337E01D4B1B6831
:1023EC0003F00073002BF0D02FE01C4B00221A607E
:1023FC00FFF70CFB386108E0FFF708FB02463B696E
:10240C00D31A022B01D9032320E0124B1B6803F0D3
:10241C000073002BF0D118E07B68DB69012B01D134
:10242C00012313E00B4B5B68FB60FB6803F4803209
:10243C007B681B6A9A4206D1FB6803F470127B68B6
:10244C005B6A9A4201D0012300E00023184618373A
:10245C00BD4680BD0010024000700040600042424A
:10246C0080B584B000AF786039607B68002B01D1F7
:10247C000123D0E06A4B1B6803F007033A689A42C9
:10248C0010D9674B1B6823F0070265493B6813435F
:10249C000B60634B1B6803F007033A689A4201D048
:1024AC000123B8E07B681B6803F00203002B20D0EB
:1024BC007B681B6803F00403002B05D0594B5B6849
:1024CC00584A43F4E06353607B681B6803F00803CD
:1024DC00002B05D0534B5B68524A43F46053536056
:1024EC00504B5B6823F0F0027B689B684D491343AB
:1024FC004B607B681B6803F00103002B40D07B68AA
:10250C005B68012B07D1474B1B6803F40033002B8E
:10251C0015D101237FE07B685B68022B07D1414B0F
:10252C001B6803F00073002B09D1012373E03D4BB2
:10253C001B6803F00203002B01D101236BE0394B24
:10254C005B6823F003027B685B68364913434B607E
:10255C00FFF75CFAF8600AE0FFF758FA0246FB68EE
:10256C00D31A41F28832934201D9032353E02D4B05
:10257C005B6803F00C027B685B689B009A42EBD1B2
:10258C00274B1B6803F007033A689A4210D2244B7E
:10259C001B6823F0070222493B6813430B60204B56
:1025AC001B6803F007033A689A4201D0012332E01A
:1025BC007B681B6803F00403002B08D0194B5B6885
:1025CC0023F4E0627B68DB68164913434B607B683D
:1025DC001B6803F00803002B09D0124B5B6823F433
:1025EC0060527B681B69DB000E4913434B6000F0A3
:1025FC0021F802460B4B5B681B0903F00F030A49D9
:10260C00CB5C22FA03F3094A1360094B1B6818468A
:10261C00FFF7BAF9002318461037BD4680BD00BF3E
:10262C0000200240001002404C2F00082C0000201B
:10263C003000002080B487B000AF0023FB60002383
:10264C00BB6000237B6100237B6000233B611E4B3E
:10265C005B68FB60FB6803F00C03042B02D0082BB7
:10266C0003D027E0194B3B6127E0FB689B0C03F080
:10267C000F03174AD35C7B60FB6803F48033002B99
:10268C0010D0114B5B685B0C03F00103114AD35C57
:10269C00BB607B680D4A02FB03F2BB68B2FBF3F331
:1026AC007B6104E07B680C4A02FB03F37B617B6972
:1026BC003B6102E0054B3B6100BF3B6918461C3790
:1026CC00BD4680BC704700BF0010024000127A006B
:1026DC005C2F00086C2F000800093D0080B485B009
:1026EC0000AF78600A4B1B680A4AA2FB03235B0A03
:1026FC007A6802FB03F3FB6000BFFB685A1EFA60AA
:10270C00002BF9D100BF00BF1437BD4680BC704709
:10271C002C000020D34D621080B582B000AF7860E1
:10272C007B68002B01D1012341E07B6893F83D309D
:10273C00DBB2002B06D17B68002283F83C20786842
:10274C00FFF78AF87B68022283F83D207B681A68C1
:10275C007B6804331946104600F056FA7B68012258
:10276C0083F846207B68012283F83E207B68012297
:10277C0083F83F207B68012283F840207B6801228C
:10278C0083F841207B68012283F842207B68012278
:10279C0083F843207B68012283F844207B68012264
:1027AC0083F845207B68012283F83D2000231846DE
:1027BC000837BD4680BD000080B485B000AF78609E
:1027CC007B6893F83D30DBB2012B01D0012335E05F
:1027DC007B68022283F83D207B681B68DA687B6883
:1027EC001B6842F00102DA607B681B68164A934250
:1027FC0009D07B681B68B3F1804F04D07B681B68E1
:10280C00124A934211D17B681B689B6803F0070343
:10281C00FB60FB68062B10D07B681B681A687B6812
:10282C001B6842F001021A6007E07B681B681A689B
:10283C007B681B6842F001021A60002318461437AB
:10284C00BD4680BC704700BF002C01400004004016
:10285C0080B584B000AF78607B681B68DB68FB6078
:10286C007B681B681B69BB60BB6803F00203002B11
:10287C0020D0FB6803F00203002B1BD07B681B6885
:10288C006FF002021A617B6801221A777B681B6861
:10289C009B6903F00303002B03D0786800F098F9D0
:1028AC0005E0786800F08BF9786800F09AF97B689D
:1028BC0000221A77BB6803F00403002B20D0FB68BE
:1028CC0003F00403002B1BD07B681B686FF0040221
:1028DC001A617B6802221A777B681B689B6903F478
:1028EC004073002B03D0786800F072F905E078682B
:1028FC0000F065F9786800F074F97B6800221A77AB
:10290C00BB6803F00803002B20D0FB6803F008031E
:10291C00002B1BD07B681B686FF008021A617B6868
:10292C0004221A777B681B68DB6903F00303002B16
:10293C0003D0786800F04CF905E0786800F03FF9B6
:10294C00786800F04EF97B6800221A77BB6803F0B8
:10295C001003002B20D0FB6803F01003002B1BD0BE
:10296C007B681B686FF010021A617B6808221A776B
:10297C007B681B68DB6903F44073002B03D0786819
:10298C0000F026F905E0786800F019F9786800F095
:10299C0028F97B6800221A77BB6803F00103002B2F
:1029AC000CD0FB6803F00103002B07D07B681B687D
:1029BC006FF001021A617868FEF72EFEBB6803F017
:1029CC008003002B0CD0FB6803F08003002B07D096
:1029DC007B681B686FF080021A61786800F06FFAF0
:1029EC00BB6803F04003002B0CD0FB6803F04003E2
:1029FC00002B07D07B681B686FF040021A61786867
:102A0C0000F0F8F8BB6803F02003002B0CD0FB6837
:102A1C0003F02003002B07D07B681B686FF02002AB
:102A2C001A61786800F042FA00BF1037BD4680BDCD
:102A3C0080B584B000AF786039600023FB737B688D
:102A4C0093F83C30012B01D10223B4E07B680122C6
:102A5C0083F83C207B68022283F83D207B681B684E
:102A6C009B68BB60BB6823F07703BB60BB6823F437
:102A7C007F43BB607B681B68BA689A603B681B68C5
:102A8C00B3F5005F3ED0B3F5005F00F28780B3F57D
:102A9C00805F00F08680B3F5805F7FD8702B1AD0F2
:102AAC00702B7BD8602B50D0602B77D8502B3CD020
:102ABC00502B73D8402B58D0402B6FD8302B64D070
:102ACC00302B6BD8202B60D0202B67D8002B5CD000
:102ADC00102B5AD062E07B6818683B6899683B6899
:102AEC005A683B68DB6800F06AF97B681B689B6876
:102AFC00BB60BB6843F07703BB607B681B68BA683C
:102B0C009A604FE07B6818683B6899683B685A6824
:102B1C003B68DB6800F053F97B681B689A687B683C
:102B2C001B6842F480429A603CE07B6818683B6802
:102B3C0059683B68DB681A4600F0CAF87B681B686A
:102B4C005021184600F021F92CE07B6818683B688E
:102B5C0059683B68DB681A4600F0E8F87B681B682C
:102B6C006021184600F011F91CE07B6818683B687E
:102B7C0059683B68DB681A4600F0AAF87B681B684A
:102B8C004021184600F001F90CE07B681A683B689C
:102B9C001B681946104600F0F8F803E00123FB739C
:102BAC0000E000BF7B68012283F83D207B68002297
:102BBC0083F83C20FB7B18461037BD4680BD80B4A3
:102BCC0083B000AF786000BF0C37BD4680BC704747
:102BDC0080B483B000AF786000BF0C37BD4680BCBA
:102BEC00704780B483B000AF786000BF0C37BD462F
:102BFC0080BC704780B483B000AF786000BF0C37E6
:102C0C00BD4680BC7047000080B485B000AF7860D2
:102C1C0039607B681B68FB607B682B4A934207D04A
:102C2C007B68B3F1804F03D07B68284A934208D16C
:102C3C00FB6823F07003FB603B685B68FA68134326
:102C4C00FB607B68204A934207D07B68B3F1804FCE
:102C5C0003D07B681D4A934208D1FB6823F4407370
:102C6C00FB603B68DB68FA681343FB60FB6823F08E
:102C7C0080023B685B691343FB607B68FA681A60EF
:102C8C003B689A687B68DA623B681A687B689A6270
:102C9C007B680D4A934203D13B681A697B681A63BF
:102CAC007B6801225A617B681B6903F00103002BCE
:102CBC0005D07B681B6923F001027B681A6100BF99
:102CCC001437BD4680BC7047002C01400004004006
:102CDC0080B487B000AFF860B9607A60FB681B6A9B
:102CEC007B61FB681B6A23F00102FB681A62FB68BC
:102CFC009B693B613B6923F0F0033B617B681B01E3
:102D0C003A6913433B617B6923F00A037B617A695F
:102D1C00BB6813437B61FB683A699A61FB687A690B
:102D2C001A6200BF1C37BD4680BC704780B487B0A8
:102D3C0000AFF860B9607A60FB681B6A7B61FB6866
:102D4C001B6A23F01002FB681A62FB689B693B61EB
:102D5C003B6923F470433B617B681B033A69134363
:102D6C003B617B6923F0A0037B61BB681B017A6923
:102D7C0013437B61FB683A699A61FB687A691A6252
:102D8C0000BF1C37BD4680BC704780B485B000AF17
:102D9C00786039607B689B68FB60FB6823F070038C
:102DAC00FB603A68FB68134343F00703FB607B68E6
:102DBC00FA689A6000BF1437BD4680BC704780B477
:102DCC0087B000AFF860B9607A603B60FB689B68C5
:102DDC007B617B6923F47F437B613B681A027B68D0
:102DEC001A43BB6813437A6913437B61FB687A69A6
:102DFC009A6000BF1C37BD4680BC704780B485B05C
:102E0C0000AF786039607B6893F83C30012B01D1BE
:102E1C00022341E07B68012283F83C207B6802227C
:102E2C0083F83D207B681B685B68FB607B681B68D4
:102E3C009B68BB60FB6823F07003FB603B681B68FE
:102E4C00FA681343FB607B681B68FA685A607B68FE
:102E5C001B68144A934209D07B681B68B3F1804FFE
:102E6C0004D07B681B68104A93420CD1BB6823F0DA
:102E7C008003BB603B685B68BA681343BB607B68CC
:102E8C001B68BA689A607B68012283F83D207B68D6
:102E9C00002283F83C20002318461437BD4680BC22
:102EAC00704700BF002C01400004004080B483B088
:102EBC0000AF786000BF0C37BD4680BC704780B453
:102ECC0083B000AF786000BF0C37BD4680BC704744
:102EDC0070B500260C4D0D4C641BA410A64209D1F4
:102EEC0000F022F800260A4D0A4C641BA410A642DE
:102EFC0005D170BD55F8043B98470136EEE755F8FF
:102F0C00043B98470136F2E7702F0008702F000839
:102F1C00702F0008742F000803460244934200D11E
:102F2C00704703F8011BF9E7F8B500BFF8BC08BC03
:102F3C009E467047F8B500BFF8BC08BC9E4670476B
:102F4C00000000000000000001020304060708094D
:102F5C0002030405060708090A0B0C0D0E0F1010CE
:042F6C00010200005E
:042F70003101000823
:042F74000D01000843
:102F7800010000000200000003000000040000003F
:102F8800E7E7DBDB81BD7E7E01020408102040807C
:102F98000F000000080000000A00000000127A007C
:082FA800100000000100000010
:040000050800191DB9
:00000001FF
