:020000040800F2
:1000000000280020191F0008510C0008570C000898
:100010005D0C0008630C0008690C0008000000007B
:100020000000000000000000000000006F0C00084D
:100030007B0C000800000000870C0008930C0008EF
:10004000611F0008611F0008611F0008611F000890
:10005000611F0008611F0008611F0008611F000880
:10006000611F0008611F0008611F0008611F000870
:10007000611F0008611F0008611F0008611F000860
:10008000611F0008611F0008611F0008611F000850
:10009000611F0008611F0008611F0008611F000840
:1000A000611F0008611F0008611F0008611F000830
:1000B000A10C0008611F000800000000611F00087B
:1000C000611F00080000000000000000611F000820
:1000D00000000000611F0008611F00080000000010
:1000E000611F0008611F0008611F00080000000078
:1000F0000000000000000000000000000000000000
:0C01000000000000000000005FF808F1A3
:10010C0010B5054C237833B9044B13B10448AFF345
:10011C0000800123237010BD480000200000000067
:10012C009035000808B5034B1BB103490348AFF3E6
:10013C00008008BD000000004C0000209035000835
:10014C0080B400AF064B1B68012B04D1044B00227A
:10015C001A60012300E000231846BD4680BC70479E
:10016C006400002080B400AF064B1B68012B04D147
:10017C00044B00221A60012300E000231846BD4600
:10018C0080BC70476800002080B400AF064B1B6831
:10019C00012B04D1044B00221A60012300E0002340
:1001AC001846BD4680BC70476C00002080B400AF80
:1001BC00034B01221A6000BFBD4680BC704700BFD4
:1001CC006400002080B400AF034B01221A6000BF12
:1001DC00BD4680BC704700BF6800002080B400AFF3
:1001EC00034B01221A6000BFBD4680BC704700BFA4
:1001FC006C00002080B500AF1F4B1B681F4A1360BA
:10020C001F4B1B681C4A13604FF480611D4802F0A1
:10021C008DF903461A461A4B1A60184B1A68164B7E
:10022C001B689A4225D1144B1A68154B1B689A42CD
:10023C001FD1154B1A68124B1B689A420DD0104BEC
:10024C001B68114A13600E4B1B68002B11D1FFF772
:10025C00ADFF0E4B32221A600BE00C4B1B68013BBE
:10026C000A4A1360094B1B68002B02D1064B012272
:10027C001A6000BF80BD00BF0400002000000020F9
:10028C0008000020000801400C0000203000002075
:10029C0080B500AF1F4B1B681F4A13601F4B1B68B8
:1002AC001C4A13604FF400611D4802F03FF90346ED
:1002BC001A461A4B1A60184B1A68164B1B689A424E
:1002CC0025D1144B1A68154B1B689A421FD1154B3C
:1002DC001A68124B1B689A420DD0104B1B68114ABE
:1002EC0013600E4B1B68002B11D1FFF76BFF0E4BED
:1002FC0032221A600BE00C4B1B68013B0A4A13605C
:10030C00094B1B68002B02D1064B01221A6000BF5F
:10031C0080BD00BF14000020100000201800002039
:10032C00000801401C0000203400002080B500AF04
:10033C001F4B1B681F4A13601F4B1B681C4A136022
:10034C004FF480511D4802F0F1F803461A461A4B3F
:10035C001A60184B1A68164B1B689A4225D1144B1D
:10036C001A68154B1B689A421FD1154B1A68124B11
:10037C001B689A420DD0104B1B68114A13600E4B30
:10038C001B68002B11D1FFF729FF0E4B32221A608C
:10039C000BE00C4B1B68013B0A4A1360094B1B68B2
:1003AC00002B02D1064B01221A6000BF80BD00BF9A
:1003BC00240000202000002028000020000801401C
:1003CC002C0000203800002080B500AF01F0C4FDE7
:1003DC0000F024F800F0AAF800F05CF80A4802F0EB
:1003EC0019FD0A4B01221A60094B4FF4C8721A60AE
:1003FC00084BC8221A60084B4FF416721A6000F0B2
:10040C0065FF00F057FCFAE7EC00002070000020BC
:10041C0074000020780000207C00002080B590B093
:10042C0000AF07F1180328220021184603F0A2F8A8
:10043C003B1D00221A605A609A60DA601A6102232E
:10044C00BB610123BB621023FB6200237B6307F1BA
:10045C001803184602F0B2F80346002B01D000F046
:10046C00D9F80F237B600023BB600023FB600023C3
:10047C003B6100237B613B1D0021184602F01EFBF3
:10048C000346002B01D000F0C5F800BF4037BD4635
:10049C0080BD000080B586B000AF07F108030022D4
:1004AC001A605A609A60DA603B4600221A605A6001
:1004BC001D4B4FF080421A601B4B41F63F725A6045
:1004CC00194B00229A60184B0922DA60164B002255
:1004DC001A61154B00229A61134802F04BFC03463B
:1004EC00002B01D000F096F84FF48053BB6007F15D
:1004FC00080319460C4802F0C9FD0346002B01D035
:10050C0000F088F800233B6000237B603B461946D3
:10051C00054802F0A1FF0346002B01D000F07AF849
:10052C0000BF1837BD4680BDEC00002080B586B0FA
:10053C0000AF07F1080300221A605A609A60DA6073
:10054C00294B9B69284A43F004039361264B9B6912
:10055C0003F004037B607B68234B9B69224A43F0C6
:10056C0008039361204B9B6903F008033B603B68D5
:10057C0000224FF470711D4801F0EFFF002241F68C
:10058C00FF711B4801F0E9FF4FF47073BB6001234E
:10059C00FB6000233B6102237B6107F108031946D2
:1005AC00124801F049FE41F6FF73BB600123FB606A
:1005BC0000233B6102237B6107F1080319460C48B9
:1005CC0001F03AFE4FF4E053BB600023FB600123C3
:1005DC003B6107F108031946044801F02DFE00BFEA
:1005EC001837BD4680BD00BF001002400008014016
:1005FC00000C014080B582B000AF786000F026FAA4
:10060C00FFF7F8FDFFF744FEFFF790FE00BF083739
:10061C00BD4680BD80B400AF72B600BFFEE70000DF
:10062C0080B582B000AF78607B68092B00F28081C6
:10063C0001A252F823F000BF6D060008B5060008B1
:10064C00FD060008450700088D070008D5070008BF
:10065C001D08000865080008AD080008F50800082A
:10066C0000220121C64801F078FF00220221C44873
:10067C0001F073FF00220421C14801F06EFF00223B
:10068C000821BF4801F069FF00221021BC4801F08D
:10069C0064FF00222021BA4801F05FFF01224021B3
:1006AC00B74801F05AFF67E101220121B44801F07B
:1006BC0054FF00220221B24801F04FFF0022042116
:1006CC00AF4801F04AFF01220821AD4801F045FF77
:1006DC0001221021AA4801F040FF01222021A84844
:1006EC0001F03BFF01224021A54801F036FF43E118
:1006FC0000220121A24801F030FF00220221A04873
:10070C0001F02BFF012204219D4801F026FF00225D
:10071C0008219B4801F021FF00221021984801F08C
:10072C001CFF01222021964801F017FF00224021D6
:10073C00934801F012FF1FE100220121904801F0C3
:10074C000CFF002202218E4801F007FF0022042139
:10075C008B4801F002FF00220821894801F0FDFEC0
:10076C0001221021864801F0F8FE01222021844844
:10077C0001F0F3FE00224021814801F0EEFEFBE087
:10078C00012201217E4801F0E8FE002202217C4872
:10079C0001F0E3FE00220421794801F0DEFE012283
:1007AC000821774801F0D9FE01221021744801F08C
:1007BC00D4FE00222021724801F0CFFE00224021FD
:1007CC006F4801F0CAFED7E0002201216C4801F00D
:1007DC00C4FE012202216A4801F0BFFE002204215E
:1007EC00674801F0BAFE00220821654801F0B5FE09
:1007FC0001221021624801F0B0FE00222021604845
:10080C0001F0ABFE002240215D4801F0A6FEB3E0F2
:10081C00002201215A4801F0A0FE01220221584871
:10082C0001F09BFE00220421554801F096FE0022A7
:10083C000821534801F091FE00221021504801F08C
:10084C008CFE002220214E4801F087FE0022402120
:10085C004B4801F082FE8FE000220121484801F054
:10086C007CFE00220221464801F077FE0022042182
:10087C00434801F072FE01220821414801F06DFE4F
:10088C00012210213E4801F068FE012220213C4843
:10089C0001F063FE01224021394801F05EFE6BE05D
:1008AC0000220121364801F058FE00220221344872
:1008BC0001F053FE00220421314801F04EFE0022CB
:1008CC0008212F4801F049FE002210212C4801F08C
:1008DC0044FE002220212A4801F03FFE0022402144
:1008EC00274801F03AFE47E000220121244801F09C
:1008FC0034FE00220221224801F02FFE00220421A6
:10090C001F4801F02AFE002208211D4801F025FE97
:10091C00012210211A4801F020FE00222021184843
:10092C0001F01BFE00224021154801F016FE23E0C9
:10093C0001220121124801F010FE0122022110486F
:10094C0001F00BFE012204210D4801F006FE0122EC
:10095C0008210B4801F001FE01221021084801F08A
:10096C00FCFD01222021064801F0F7FD0122402167
:10097C00034801F0F2FD00BF00BF0837BD4680BD43
:10098C00000C014080B483B000AF7860054A7B68EE
:10099C001360054B00221A6000BF0C37BD4680BCAB
:1009AC00704700BF800000208400002080B483B01A
:1009BC0000AF7860054A7B681360054B00221A6013
:1009CC0000BF0C37BD4680BC704700BF88000020BC
:1009DC008C00002080B483B000AF7860054A7B683F
:1009EC001360054B00221A6000BF0C37BD4680BC5B
:1009FC00704700BF900000209400002080B483B0AA
:100A0C0000AF7860054A7B681360054B00221A60C2
:100A1C0000BF0C37BD4680BC704700BF980000205B
:100A2C009C00002080B483B000AF7860054A7B68DE
:100A3C001360054B00221A6000BF0C37BD4680BC0A
:100A4C00704700BFA0000020A400002080B400AFBD
:100A5C00414B1B68002B0BDD3F4B1B68013B3E4A97
:100A6C0013603D4B1B68002B02DC3C4B01221A60CF
:100A7C003B4B1B68002B0BDD394B1B68013B384A89
:100A8C001360374B1B68002B02DC364B01221A60BB
:100A9C00354B1B68002B0BDD334B1B68013B324A7B
:100AAC001360314B1B68002B02DC304B01221A60A7
:100ABC002F4B1B68002B0BDD2D4B1B68013B2C4A6D
:100ACC0013602B4B1B68002B02DC2A4B01221A6093
:100ADC00294B1B68002B0BDD274B1B68013B264A5F
:100AEC001360254B1B68002B02DC244B01221A607F
:100AFC00234B1B68002B0BDD214B1B68013B204A51
:100B0C0013601F4B1B68002B02DC1E4B01221A606A
:100B1C001D4B1B68002B0BDD1B4B1B68013B1A4A42
:100B2C001360194B1B68002B02DC184B01221A6056
:100B3C00174B1B68002B0BDD154B1B68013B144A34
:100B4C001360134B1B68002B02DC124B01221A6042
:100B5C0000BFBD4680BC7047800000208400002090
:100B6C00880000208C0000209000002094000020C1
:100B7C00980000209C000020A0000020A400002071
:100B8C00A8000020AC000020B0000020B400002021
:100B9C00B8000020BC00002080B485B000AF154B1D
:100BAC009B69144A43F001039361124B9B6903F058
:100BBC000103BB60BB680F4BDB690E4A43F08053EB
:100BCC00D3610C4BDB6903F080537B607B680A4B71
:100BDC005B68FB60FB6823F0E063FB60FB6843F041
:100BEC008063FB60044AFB68536000BF1437BD464A
:100BFC0080BC7047001002400000014080B584B0FA
:100C0C0000AF78607B681B68B3F1804F13D10C4B3D
:100C1C00DB690B4A43F00103D361094BDB6903F039
:100C2C000103FB60FB68002200211C2001F0CDFABF
:100C3C001C2001F0E6FA00BF1037BD4680BD00BF96
:100C4C000010024080B400AFFEE780B400AFFEE7B6
:100C5C0080B400AFFEE780B400AFFEE780B400AF15
:100C6C00FEE780B400AF00BFBD4680BC704780B4C7
:100C7C0000AF00BFBD4680BC704780B400AF00BF62
:100C8C00BD4680BC704780B500AF01F0ABF900BF2A
:100C9C0080BD000080B500AF024802F007F900BF2C
:100CAC0080BD00BFEC00002080B400AF00BFBD468B
:100CBC0080BC704780B500AFBA4B1B680A3B032B56
:100CCC0000F2DD8201A252F823F000BFE90C00080B
:100CDC00750D0008030F0008BD100008012240210B
:100CEC00B14801F03AFC01228021AF4801F035FCFB
:100CFC0001224FF48071AC4801F02FFC01224FF41B
:100D0C000071A94801F029FC00228021A74801F0BC
:100D1C0024FC00224FF48071A44801F01EFC002238
:100D2C004FF40071A14801F018FC00224FF48061CF
:100D3C009E4801F012FC00224FF400619B4801F028
:100D4C000CFC00224FF48051984801F006FC954BA6
:100D5C000B221A603220FFF729FE6420FFF73AFEBF
:100D6C001920FFF75FFE91E2914B1B68012B0BD111
:100D7C0080218E4801F009FC4FF480618B4801F012
:100D8C0004FC3220FFF712FE8A4B1B68012B40F04B
:100D9C00818001224021844801F0DFFB0122802167
:100DAC00814801F0DAFB01224FF480717E4801F09A
:100DBC00D4FB01224FF400717B4801F0CEFB7E4B3B
:100DCC001B68032B57D801A252F823F0E90D000839
:100DDC00050E0008210E00084D0E0008774B00226E
:100DEC001A60764B1B681846FFF71AFC002240214C
:100DFC006D4801F0B2FB3EE0704B02221A606F4B63
:100E0C001B681846FFF70CFC00228021664801F095
:100E1C00A4FB30E06A4B1B686A4A82FB03129210F7
:100E2C00DB17D31A654A1360644B1B681846FFF72F
:100E3C00F7FB00224FF480715B4801F08EFB1AE047
:100E4C005F4B19685F4B83FB01239A10CB17D21AA7
:100E5C0013469B0013445B00CA1A584B1A60574B3D
:100E6C001B681846FFF7DCFB00224FF400714E485C
:100E7C0001F073FB00BF504B1B6801335A4203F067
:100E8C00030302F0030258BF53424B4A136019206C
:100E9C00FFF7C8FDFFF754F90346012B13D10022CD
:100EAC008021424801F059FB00224FF480613F48F9
:100EBC0001F053FB424B00221A603F4B00221A6098
:100ECC00384B0C221A60FFF74DF90346012B04D165
:100EDC003B4B1B6801333A4A1360FFF755F9034645
:100EEC00012B40F0CE81364B1B68374A1360344BD4
:100EFC0000221A60C5E12E4B1B68012B0CD14FF45C
:100F0C0080712A4801F041FB4FF40061274801F041
:100F1C003CFB3220FFF74AFD264B1B68012B40F0AF
:100F2C00958001224021204801F017FB01228021ED
:100F3C001D4801F012FB01224FF480711A4801F098
:100F4C000CFB01224FF40071174801F006FB1A4B01
:100F5C001B68032B6BD801A252F823F0790F000801
:100F6C00950F0008D90F000805100008134B00223C
:100F7C001A60124B1B681846FFF752FB00224021E7
:100F8C00094801F0EAFA52E00C4B03221A600B4BB1
:100F9C001B681846FFF744FB00228021024801F031
:100FAC00DCFA44E07000002000080140000C014015
:100FBC008C000020A4000020D4000020C4000020DD
:100FCC00C000002067666666C8000020B04B1B6836
:100FDC00B04A82FB03129210DB17D31AAE4A13608D
:100FEC00AD4B1B681846FFF71BFB00224FF48071BA
:100FFC00AA4801F0B2FA1AE0A54B1968A54B83FB7D
:10100C0001239A10CB17D21A13469B0013445B0092
:10101C00CA1AA14B1A60A04B1B681846FFF700FBBD
:10102C0000224FF400719D4801F097FA00BF9C4BD1
:10103C001B6801335A4203F0030302F0030258BF4A
:10104C005342974A13601920FFF7ECFCFFF778F82E
:10105C000346012B14D100224FF48071914801F00A
:10106C007CFA00224FF400618E4801F076FA8E4B28
:10107C000D221A60864B00221A60894B00221A60DE
:10108C00FFF770F80346012B04D1814B1B68013329
:10109C007F4A1360FFF778F80346012B40F0F3808A
:1010AC007B4B1B68814A1360794B00221A60EAE083
:1010BC007F4B1B68012B0CD14FF40071794801F068
:1010CC0064FA4FF48051774801F05FFA3220FFF751
:1010DC006DFC784B1B68012B40F082800122402173
:1010EC006E4801F03AFA012280216C4801F035FA81
:1010FC0001224FF48071694801F02FFA01224FF45C
:10110C000071664801F029FA654B1B68032B58D80F
:10111C0001A252F823F000BF35110008511100084C
:10112C006D110008991100085B4B00221A605A4B94
:10113C001B681846FFF774FA00224021574801F04B
:10114C000CFA3EE0544B04221A60534B1B681846B1
:10115C00FFF766FA00228021504801F0FEF930E0DA
:10116C004B4B1B684B4A82FB03129210DB17D31AB2
:10117C00494A1360484B1B681846FFF751FA002286
:10118C004FF48071454801F0E8F91AE0404B1968BA
:10119C00404B83FB01239A10CB17D21A13469B00AA
:1011AC0013445B00CA1A3C4B1A603B4B1B68184635
:1011BC00FFF736FA00224FF40071384801F0CDF9F0
:1011CC0000BF374B1B6801335A4203F0030302F094
:1011DC00030258BF5342324A13601920FFF722FC16
:1011EC00FEF7AEFF0346012B32D1334B1A682F4B5F
:1011FC001B681A44314B1B689A4214D12F4B1B6845
:10120C00642202FB03F32E4A1360284B1B686422F2
:10121C0002FB03F32B4A1360274B1B68642202FB6F
:10122C0003F3294A136000224FF400711D4801F0AA
:10123C0094F900224FF480511A4801F08EF91A4BA0
:10124C0001221A60124B00221A60154B00221A6000
:10125C00FEF788FF0346012B04D10D4B1B680133AD
:10126C000B4A1360FEF790FF0346012B0DD1084B80
:10127C001B68114A1360064B00221A6005E000BF80
:10128C0004E000BF02E000BF00E000BF00BF80BD73
:10129C00C000002067666666C4000020000801409C
:1012AC00D4000020000C014070000020D000002071
:1012BC008C000020A4000020CC000020C8000020DE
:1012CC007C000020780000207400002080B500AF66
:1012DC00A54B1B68013B042B00F2FD8501A252F8C3
:1012EC0023F000BF0513000831140008B7160008DE
:1012FC00291900089D1B0008012280219B4801F040
:10130C002CF901224FF48071984801F026F9012242
:10131C004FF40071954801F020F901224FF48061DF
:10132C00924801F01AF901224FF400618F4801F044
:10133C0014F901224FF480518C4801F00EF98C4BBA
:10134C001B68632B08DD8A4B1B688A4A82FB0312DD
:10135C005211DB17D31A00E00123874A1360844B28
:10136C001B68632B08DD824B1B68824A82FB0312CD
:10137C005211DB17D31A00E00123804A1360804B13
:10138C001B68632B08DD7E4B1B687A4A82FB0312B9
:10139C005211DB17D31A00E001237A4A1360784B01
:1013AC001B68632B08DD764B1B68724A82FB0312A9
:1013BC005211DB17D31A00E00123734A1360734BED
:1013CC001B68632B08DD714B1B686A4A82FB031296
:1013DC005211DB17D31A00E001236D4A13606B4BDB
:1013EC001B68632B08DD694B1B68624A82FB031286
:1013FC005211DB17D31A00E00123664A13605A4BD3
:10140C0002221A60644B00221A60604B1B6818465B
:10141C00FFF7B8FA1920FFF7DDFA6420FFF7EEFAB0
:10142C0000F062BD01228021504801F096F80022A4
:10143C004FF480714D4801F090F800224FF4007188
:10144C004A4801F08AF800224FF48061474801F0C5
:10145C0084F800224FF40061444801F07EF8012228
:10146C004FF48051414801F078F84C4B1B68012B2C
:10147C0007D13D4B03221A60414B1B681846FFF7FE
:10148C0081FA474B1B68012B40F0EB800122402175
:10149C00444801F062F801228021424801F05DF8D5
:1014AC0001224FF480713F4801F057F801224FF4AC
:1014BC0000713C4801F051F8374B1B68032B00F2CC
:1014CC00C18001A252F823F0E5140008331500087E
:1014DC00BD1500080D160008274B1B68324A82FB0D
:1014EC0003129210DB17D11A2F4B83FB01239A1096
:1014FC00CB17D21A13469B0013445B00CA1A2B4B12
:10150C001A602A4B1B68002B02DA284B00221A6047
:10151C00264B1B681846FFF783F800224021214810
:10152C0001F01BF88EE0144B19681F4B83FB012351
:10153C009A10CB17D21A13469B0013445B00CA1A9D
:10154C001A4B1A60194B1B68002B02DA174B00223E
:10155C001A60164B1B681846FFF762F800228021B0
:10156C00104800F0FAFF6DE070000020000C014004
:10157C007C0000201F85EB513C010020D80000208E
:10158C007800002034010020DC00002074000020D2
:10159C0038010020E0000020E4000020840000203E
:1015AC00940000200008014067666666E800002091
:1015BC00A34B1B68A34A82FB03129210DB17D11AB0
:1015CC00A04B83FB01239A10CB17D21A13469B0016
:1015DC0013445B00CA1A9C4B1A609B4B1B68002B74
:1015EC0002DA994B00221A60974B1B681846FFF7DA
:1015FC0017F800224FF48071944800F0AEFF21E000
:10160C008F4B19688F4B83FB01239A10CB17D21A7F
:10161C0013469B0013445B00CA1A8B4B1A608A4B0F
:10162C001B68002B02DA884B00221A60864B1B6861
:10163C001846FEF7F5FF00224FF40071834800F0C6
:10164C008CFF00BF824B1B6801335A4203F003032B
:10165C0002F0030258BF53427D4A13601920FFF772
:10166C00B9F97C4B1B68012B14D17B4B1B68002BED
:10167C0004DD794B1B68013B774A1360704B1B6888
:10168C00002B04DD6E4B1B68013B6D4A136064201C
:10169C00FFF7B4F9FEF754FD0346012B40F01D840F
:1016AC006E4B0A221A6000F018BC012280216C4893
:1016BC0000F053FF00224FF48071694800F04DFF99
:1016CC0000224FF40071664800F047FF00224FF4EF
:1016DC008061634800F041FF01224FF400616048D3
:1016EC0000F03BFF00224FF480515D4800F035FFC5
:1016FC005C4B1B68012B07D1584B04221A605A4BC8
:10170C001B681846FFF73EF9584B1B68012B40F03D
:10171C00E280012240214D4800F01FFF0122802170
:10172C004A4800F01AFF01224FF48071474800F03C
:10173C0014FF01224FF40071444800F00EFF444B9B
:10174C001B68032B00F2B88001A252F823F000BFF3
:10175C006D170008BB170008FD170008811800085A
:10176C003D4B1B68374A82FB03129210DB17D11AD0
:10177C00344B83FB01239A10CB17D21A13469B00D0
:10178C0013445B00CA1A304B1A602F4B1B68002B9A
:10179C0002DA2D4B00221A602B4B1B681846FEF701
:1017AC003FFF00224021294800F0D7FE84E02A4B5D
:1017BC001968244B83FB01239A10CB17D21A1346BA
:1017CC009B0013445B00CA1A1F4B1A601E4B1B680C
:1017DC00002B02DA1C4B00221A601B4B1B681846AC
:1017EC00FEF71EFF00228021184800F0B6FE63E0D1
:1017FC001F4B1B68134A82FB03129210DB17D11A82
:10180C00104B83FB01239A10CB17D21A13469B0063
:10181C0013445B00CA1A0C4B1A600B4B1B68002B51
:10182C0002DA094B00221A60074B1B681846FEF7B8
:10183C00F7FE00224FF48071044800F08EFE3BE06E
:10184C00E000002067666666E800002000080140A2
:10185C00E40000209C0000203C01002070000020CF
:10186C00000C014084000020740000209400002033
:10187C00DC0000208E4B19688E4B83FB01239A10E1
:10188C00CB17D21A13469B0013445B00CA1A8A4B1F
:10189C001A60894B1B68002B02DA874B00221A60F6
:1018AC00854B1B681846FEF7BBFE00224FF40071F7
:1018BC00824800F052FE00BF814B1B6801335A4234
:1018CC0003F0030302F0030258BF53427C4A136037
:1018DC001920FFF77FF87B4B1B68012B14D17A4B37
:1018EC001B68002B04DD784B1B68013B764A1360A8
:1018FC006F4B1B68002B04DD6D4B1B68013B6C4A66
:10190C0013606420FFF77AF8FEF71AFC0346012BEC
:10191C0040F0E5826D4B0A221A60E0E20022802141
:10192C006B4800F01AFE00224FF48071684800F0FA
:10193C0014FE01224FF40071654800F00EFE0122E6
:10194C004FF48061624800F008FE00224FF4006101
:10195C005F4800F002FE00224FF480515C4800F01A
:10196C00FCFD5C4B1B68012B07D1584B05221A6000
:10197C00594B1B681846FFF705F8584B1B68012B91
:10198C0040F0E380012240214C4800F0E6FD0122AA
:10199C0080214A4800F0E1FD01224FF48071474854
:1019AC0000F0DBFD01224FF40071444800F0D5FD3E
:1019BC00434B1B68032B00F2B98001A252F823F0B1
:1019CC00DD1900082B1A00086D1A0008F51A00081A
:1019DC00434B1B68374A82FB03129210DB17D11A58
:1019EC00344B83FB01239A10CB17D21A13469B005E
:1019FC0013445B00CA1A304B1A602F4B1B68002B28
:101A0C0002DA2D4B00221A602B4B1B681846FEF78E
:101A1C0007FE00224021294800F09FFD86E0304B54
:101A2C001968244B83FB01239A10CB17D21A134647
:101A3C009B0013445B00CA1A1F4B1A601E4B1B6899
:101A4C00002B02DA1C4B00221A601B4B1B68184639
:101A5C00FEF7E6FD00228021184800F07EFD65E0CF
:101A6C00204B1B68134A82FB03129210DB17D11A0E
:101A7C00104B83FB01239A10CB17D21A13469B00F1
:101A8C0013445B00CA1A0C4B1A600B4B1B68002BDF
:101A9C0002DA094B00221A60074B1B681846FEF746
:101AAC00BFFD00224FF48071044800F056FD3DE06C
:101ABC00DC00002067666666E80000200008014034
:101ACC00E40000209C0000203C010020700000205D
:101ADC00000C0140840000207800002094000020BD
:101AEC0038010020D8000020AA4B1968AA4B83FBB0
:101AFC0001239A10CB17D21A13469B0013445B0098
:101B0C00CA1AA64B1A60A54B1B68002B02DAA34B12
:101B1C0000221A60A14B1B681846FEF781FD0022BB
:101B2C004FF400719E4800F018FD00BF9D4B1B68E0
:101B3C0001335A4203F0030302F0030258BF53422D
:101B4C00984A13601920FEF745FF974B1B68012B31
:101B5C0014D1964B1B68002B04DD944B1B68013B86
:101B6C00924A13608B4B1B68002B04DD894B1B685E
:101B7C00013B884A13606420FEF740FFFEF7E0FA51
:101B8C000346012B40F0AD81894B0A221A60A8E173
:101B9C0000228021874800F0E0FC01224FF4807184
:101BAC00844800F0DAFC00224FF40071814800F008
:101BBC00D4FC01224FF480617E4800F0CEFC002260
:101BCC004FF400617B4800F0C8FC00224FF48051B8
:101BDC00784800F0C2FC784B1B68012B67D1744B22
:101BEC0002221A60754B1B68632B08DD734B1B6854
:101BFC00734A82FB03125211DB17D31A00E0012344
:101C0C00704A13606D4B1B68632B08DD6B4B1B68B4
:101C1C006B4A82FB03125211DB17D31A00E001232B
:101C2C005C4A1360684B1B68632B08DD664B1B68B2
:101C3C00634A82FB03125211DB17D31A00E0012313
:101C4C00624A1360604B1B68632B08DD5E4B1B689C
:101C5C005B4A82FB03125211DB17D31A00E00123FB
:101C6C005B4A13605B4B1B68632B08DD594B1B688D
:101C7C00534A82FB03125211DB17D31A00E00123E3
:101C8C004A4A1360534B1B68632B08DD514B1B688E
:101C9C004B4A82FB03125211DB17D31A00E00123CB
:101CAC004D4A13604B4B1B681846FEF76BFE4B4BB3
:101CBC001B68012B40F0ED8001224021384800F0D8
:101CCC004CFC01228021364800F047FC01224FF4E5
:101CDC008071334800F041FC01224FF40071304810
:101CEC0000F03BFC2F4B1B68032B00F2C38001A2BE
:101CFC0052F823F0111D00085F1D0008ED1D0008AF
:101D0C003D1E0008314B1B68234A82FB03129210C4
:101D1C00DB17D11A204B83FB01239A10CB17D21A55
:101D2C0013469B0013445B00CA1A1C4B1A601B4BD6
:101D3C001B68002B02DA194B00221A60174B1B6828
:101D4C001846FEF76DFC00224021154800F005FCFA
:101D5C0090E01E4B1968104B83FB01239A10CB1794
:101D6C00D21A13469B0013445B00CA1A0B4B1A6021
:101D7C000A4B1B68002B02DA084B00221A60074B37
:101D8C001B681846FEF74CFC00228021044800F02A
:101D9C00E4FB6FE0D800002067666666E800002070
:101DAC0000080140E40000209C00002038010020C5
:101DBC0070000020000C0140840000207C000020FA
:101DCC001F85EB513C0100207800002034010020DD
:101DDC00DC00002074000020E000002094000020B3
:101DEC00424B1B68424A82FB03129210DB17D11A3A
:101DFC003F4B83FB01239A10CB17D21A13469B003F
:101E0C0013445B00CA1A3B4B1A603A4B1B68002BFD
:101E1C0002DA384B00221A60364B1B681846FEF764
:101E2C00FFFB00224FF48071334800F096FB21E059
:101E3C002E4B19682E4B83FB01239A10CB17D21A09
:101E4C0013469B0013445B00CA1A2A4B1A60294B99
:101E5C001B68002B02DA274B00221A60254B1B68EB
:101E6C001846FEF7DDFB00224FF40071224800F00B
:101E7C0074FB00BF214B1B6801335A4203F0030370
:101E8C0002F0030258BF53421C4A13601920FEF79C
:101E9C00A1FD1B4B1B68012B14D11A4B1B68002B8B
:101EAC0004DD184B1B68013B164A13600F4B1B6873
:101EBC00002B04DD0D4B1B68013B0C4A13606420A6
:101ECC00FEF79CFDFEF73CF90346012B0BD10E4BA4
:101EDC000A221A6007E000BF06E000BF04E000BF62
:101EEC0002E000BF00E000BF00BF80BDD8000020B2
:101EFC0067666666E800002000080140E4000020E8
:101F0C009C0000203401002070000020FEF7CCFE65
:101F1C000B480C490C4A002302E0D458C45004333B
:101F2C00C4188C42F9D3094A094C002301E0136010
:101F3C000432A242FBD301F0F9FAFEF745FA7047DE
:101F4C000000002048000020D43500084800002084
:101F5C0044010020FEE7000080B500AF084B1B6871
:101F6C00074A43F010031360032000F023F90F20FD
:101F7C0000F008F8FEF710FE0023184680BD00BFE5
:101F8C000020024080B582B000AF7860124B1A6816
:101F9C00124B1B7819464FF47A73B3FBF1F3B2FB77
:101FAC00F3F3184600F03BF90346002B01D0012354
:101FBC000EE07B680F2B0AD8002279684FF0FF30B7
:101FCC0000F003F9064A7B681360002300E001234C
:101FDC0018460837BD4680BD3C0000204400002058
:101FEC004000002080B400AF054B1B781A46054B0F
:101FFC001B681344034A136000BFBD4680BC704786
:10200C00440000204001002080B400AF024B1B684C
:10201C001846BD4680BC70474001002080B485B096
:10202C0000AF78607B6803F00703FB600C4BDB6848
:10203C00BB60BA684FF6FF031340BB60FB681A0223
:10204C00BB68134343F0BF6343F40033BB60044AE3
:10205C00BB68D36000BF1437BD4680BC704700BF5F
:10206C0000ED00E080B400AF044BDB681B0A03F00A
:10207C0007031846BD4680BC704700BF00ED00E06A
:10208C0080B483B000AF0346FB7197F90730002B87
:10209C000BDBFB7903F01F02064997F907305B094C
:1020AC00012000FA02F241F8232000BF0C37BD4694
:1020BC0080BC704700E100E080B483B000AF034601
:1020CC003960FB7197F90730002B0ADB3B68DAB2F9
:1020DC000C4997F907301201D2B20B4483F8002354
:1020EC000AE03B68DAB20849FB7903F00F03043BC2
:1020FC001201D2B20B441A7600BF0C37BD4680BC1D
:10210C00704700BF00E100E000ED00E080B489B052
:10211C0000AFF860B9607A60FB6803F00703FB61FD
:10212C00FB69C3F10703042B28BF0423BB61FB69C4
:10213C000433062B02D9FB69033B00E000237B61CF
:10214C004FF0FF32BB6902FA03F3DA43BB681A4063
:10215C007B699A404FF0FF317B6901FA03F3D94355
:10216C007B680B40134318462437BD4680BC704730
:10217C0080B582B000AF78607B68013BB3F1807FA3
:10218C0001D301230FE00A4A7B68013B53600F2106
:10219C004FF0FF30FFF790FF054B00229A60044B85
:1021AC0007221A60002318460837BD4680BD00BFC1
:1021BC0010E000E080B582B000AF78607868FFF77F
:1021CC002DFF00BF0837BD4680BD80B586B000AF7F
:1021DC000346B9607A60FB7300237B61FFF742FF13
:1021EC0078617A68B9687869FFF790FF024697F9C9
:1021FC000F3011461846FFF75FFF00BF1837BD467A
:10220C0080BD80B582B000AF0346FB7197F90730F3
:10221C001846FFF735FF00BF0837BD4680BD80B5B7
:10222C0082B000AF78607868FFF7A2FF03461846CB
:10223C000837BD4680BD000080B48BB000AF78601D
:10224C00396000237B6200233B6248E101227B6AF8
:10225C0002FA03F3FB613B681B68FA691340BB612C
:10226C00BA69FB699A4240F037813B685B68A34AC4
:10227C0093425ED0A14A934275D8A14A934258D05A
:10228C009F4A93426FD89F4A934252D09D4A9342A1
:10229C0069D89D4A93424CD09B4A934263D89B4A3F
:1022AC00934246D0994A93425DD8122B2AD8122BCE
:1022BC0059D801A252F823F03F2300081923000833
:1022CC002B2300086D2300087323000873230008D8
:1022DC00732300087323000873230008732300087A
:1022EC00732300087323000873230008732300086A
:1022FC0073230008732300087323000821230008AC
:10230C0035230008824A934213D02CE03B68DB68EB
:10231C003B6229E03B68DB6804333B6224E03B68AA
:10232C00DB6808333B621FE03B68DB680C333B62C5
:10233C001AE03B689B68002B02D104233B6213E03C
:10234C003B689B68012B05D108233B627B68FA69CB
:10235C001A6109E008233B627B68FA695A6103E061
:10236C0000233B6200E000BFBB69FF2B01D87B68F8
:10237C0001E07B6804337B61BB69FF2B02D87B6A6D
:10238C009B0002E07B6A083B9B003B617B691A68FF
:10239C000F213B6901FA03F3DB431A40396A3B69AD
:1023AC0001FA03F31A437B691A603B685B6803F01C
:1023BC008053002B00F09080564B9B69554A43F09C
:1023CC0001039361534B9B6903F00103BB60BB6832
:1023DC00514A7B6A9B08023352F82330FB607B6ABC
:1023EC0003F003039B000F2202FA03F3DB43FA68AA
:1023FC001340FB607B68494A93420DD07B68484A86
:10240C00934207D07B68474A934201D1022304E0F0
:10241C00032302E0012300E000237A6A02F00302A6
:10242C0092009340FA681343FB603B497B6A9B081C
:10243C000233FA6841F823203B685B6803F480138D
:10244C00002B06D0384B9A683749BB6913438B6015
:10245C0006E0354B9A68BB69DB43334913408B600C
:10246C003B685B6803F40013002B06D02E4BDA6834
:10247C002D49BB691343CB6006E02B4BDA68BB6973
:10248C00DB4329491340CB603B685B6803F40033A2
:10249C00002B06D0244B5A682349BB6913434B606D
:1024AC0006E0214B5A68BB69DB431F4913404B6064
:1024BC003B685B6803F48033002B06D01A4B1A6818
:1024CC001949BB6913430B6006E0174B1A68BB69CB
:1024DC00DB43154913400B607B6A01337B623B681D
:1024EC001A687B6A22FA03F3002B7FF4AFAE00BFAD
:1024FC0000BF2C37BD4680BC704700BF00003210B7
:10250C0000003110000022100000211000001210F9
:10251C0000001110001002400000014000080140B2
:10252C00000C0140001001400004014080B485B053
:10253C0000AF78600B467B807B689A687B88134081
:10254C00002B02D00123FB7301E00023FB73FB7B08
:10255C0018461437BD4680BC704780B483B000AFBA
:10256C0078600B467B8013467B707B78002B03D006
:10257C007A887B681A6103E07B881A047B681A618D
:10258C0000BF0C37BD4680BC704780B485B000AF2F
:10259C0078600B467B807B68DB68FB607A88FB6825
:1025AC0013401A04FB68D9437B880B401A437B68A1
:1025BC001A6100BF1437BD4680BC704780B586B029
:1025CC0000AF78607B68002B01D101236CE27B6843
:1025DC001B6803F00103002B00F08780924B5B68B3
:1025EC0003F00C03042B0CD08F4B5B6803F00C0333
:1025FC00082B12D18C4B5B6803F48033B3F5803F0E
:10260C000BD1894B1B6803F40033002B6CD07B6817
:10261C005B68002B68D1012346E27B685B68B3F5ED
:10262C00803F06D1804B1B687F4A43F48033136094
:10263C002EE07B685B68002B0CD17B4B1B687A4AC5
:10264C0023F480331360784B1B68774A23F4802380
:10265C0013601DE07B685B68B3F5A02F0CD1724B47
:10266C001B68714A43F4802313606F4B1B686E4ADE
:10267C0043F4803313600BE06B4B1B686A4A23F402
:10268C0080331360684B1B68674A23F48023136004
:10269C007B685B68002B13D0FFF7B6FC386108E051
:1026AC00FFF7B2FC02463B69D31A642B01D9032312
:1026BC00FAE15D4B1B6803F40033002BF0D014E0FF
:1026CC00FFF7A2FC386108E0FFF79EFC02463B696D
:1026DC00D31A642B01D90323E6E1534B1B6803F493
:1026EC000033002BF0D100E000BF7B681B6803F0C7
:1026FC000203002B63D04C4B5B6803F00C03002BE4
:10270C000BD0494B5B6803F00C03082B1CD1464BD8
:10271C005B6803F48033002B16D1434B1B6803F02A
:10272C000203002B05D07B681B69012B01D0012310
:10273C00BAE13D4B1B6823F0F8027B685B69DB0058
:10274C00394913430B603AE07B681B69002B20D09E
:10275C00364B01221A60FFF757FC386108E0FFF78F
:10276C0053FC02463B69D31A022B01D903239BE18C
:10277C002D4B1B6803F00203002BF0D02A4B1B6877
:10278C0023F0F8027B685B69DB00274913430B607D
:10279C0015E0264B00221A60FFF736FC386108E082
:1027AC00FFF732FC02463B69D31A022B01D90323F3
:1027BC007AE11D4B1B6803F00203002BF0D17B6800
:1027CC001B6803F00803002B3AD07B689B69002B35
:1027DC0019D0174B01221A60FFF716FC386108E07C
:1027EC00FFF712FC02463B69D31A022B01D90323D3
:1027FC005AE10D4B5B6A03F00203002BF0D0012071
:10280C0000F09AFA1CE00A4B00221A60FFF7FCFB5E
:10281C0038610FE0FFF7F8FB02463B69D31A022B35
:10282C0008D9032340E100BF0010024000004242DF
:10283C00800442429E4B5B6A03F00203002BE9D1F9
:10284C007B681B6803F00403002B00F0A6800023B8
:10285C00FB75974BDB6903F08053002B0DD1944B28
:10286C00DB69934A43F08053D361914BDB6903F0EE
:10287C008053BB60BB680123FB758E4B1B6803F454
:10288C008073002B18D18B4B1B688A4A43F48073DE
:10289C001360FFF7B9FB386108E0FFF7B5FB0246A0
:1028AC003B69D31A642B01D90323FDE0814B1B68D0
:1028BC0003F48073002BF0D07B68DB68012B06D10E
:1028CC007B4B1B6A7A4A43F0010313622DE07B6851
:1028DC00DB68002B0CD1764B1B6A754A23F0010385
:1028EC001362734B1B6A724A23F0040313621CE0DD
:1028FC007B68DB68052B0CD16D4B1B6A6C4A43F073
:10290C00040313626A4B1B6A694A43F001031362A6
:10291C000BE0674B1B6A664A23F001031362644B9E
:10292C001B6A634A23F0040313627B68DB68002B89
:10293C0015D0FFF769FB38610AE0FFF765FB02462B
:10294C003B69D31A41F28832934201D90323ABE09D
:10295C00574B1B6A03F00203002BEED014E0FFF779
:10296C0053FB38610AE0FFF74FFB02463B69D31A71
:10297C0041F28832934201D9032395E04C4B1B6AF8
:10298C0003F00203002BEED1FB7D012B05D1484B4C
:10299C00DB69474A23F08053D3617B68DB69002BEA
:1029AC0000F08180424B5B6803F00C03082B61D074
:1029BC007B68DB69022B46D13F4B00221A60FFF784
:1029CC0023FB386108E0FFF71FFB02463B69D31A73
:1029DC00022B01D9032367E0354B1B6803F000730E
:1029EC00002BF0D17B681B6AB3F5803F08D1304BCC
:1029FC005B6823F400327B689B682D4913434B6062
:102A0C002B4B5B6823F474127B68196A7B685B6AD6
:102A1C000B43274913434B60274B01221A60FFF7E6
:102A2C00F3FA386108E0FFF7EFFA02463B69D31A74
:102A3C00022B01D9032337E01D4B1B6803F00073F5
:102A4C00002BF0D02FE01C4B00221A60FFF7DCFAB1
:102A5C00386108E0FFF7D8FA02463B69D31A022B1B
:102A6C0001D9032320E0124B1B6803F00073002BE9
:102A7C00F0D118E07B68DB69012B01D1012313E055
:102A8C000B4B5B68FB60FB6803F480327B681B6A52
:102A9C009A4206D1FB6803F470127B685B6A9A4217
:102AAC0001D0012300E0002318461837BD4680BD35
:102ABC0000100240007000406000424280B584B0BB
:102ACC0000AF786039607B68002B01D10123D0E026
:102ADC006A4B1B6803F007033A689A4210D9674B9C
:102AEC001B6823F0070265493B6813430B60634B7B
:102AFC001B6803F007033A689A4201D00123B8E03F
:102B0C007B681B6803F00203002B20D07B681B68DA
:102B1C0003F00403002B05D0594B5B68584A43F46F
:102B2C00E06353607B681B6803F00803002B05D03F
:102B3C00534B5B68524A43F460535360504B5B6891
:102B4C0023F0F0027B689B684D4913434B607B6814
:102B5C001B6803F00103002B40D07B685B68012BE2
:102B6C0007D1474B1B6803F40033002B15D101230D
:102B7C007FE07B685B68022B07D1414B1B6803F03D
:102B8C000073002B09D1012373E03D4B1B6803F04C
:102B9C000203002B01D101236BE0394B5B6823F05E
:102BAC0003027B685B68364913434B60FFF72CFAD2
:102BBC00F8600AE0FFF728FA0246FB68D31A41F2E4
:102BCC008832934201D9032353E02D4B5B6803F009
:102BDC000C027B685B689B009A42EBD1274B1B680D
:102BEC0003F007033A689A4210D2244B1B6823F077
:102BFC00070222493B6813430B60204B1B6803F010
:102C0C0007033A689A4201D0012332E07B681B68C3
:102C1C0003F00403002B08D0194B5B6823F4E0622B
:102C2C007B68DB68164913434B607B681B6803F0B9
:102C3C000803002B09D0124B5B6823F460527B68AD
:102C4C001B69DB000E4913434B6000F021F8024670
:102C5C000B4B5B681B0903F00F030A49CB5C22FA90
:102C6C0003F3094A1360094B1B681846FFF78AF9EE
:102C7C00002318461037BD4680BD00BF002002401F
:102C8C0000100240A83500083C0000204000002045
:102C9C0080B487B000AF0023FB600023BB6000232F
:102CAC007B6100237B6000233B611E4B5B68FB60F8
:102CBC00FB6803F00C03042B02D0082B03D027E095
:102CCC00194B3B6127E0FB689B0C03F00F03174A81
:102CDC00D35C7B60FB6803F48033002B10D0114B6A
:102CEC005B685B0C03F00103114AD35CBB607B682F
:102CFC000D4A02FB03F2BB68B2FBF3F37B6104E009
:102D0C007B680C4A02FB03F37B617B693B6102E04D
:102D1C00054B3B6100BF3B6918461C37BD4680BC68
:102D2C00704700BF0010024000127A00B83500084E
:102D3C00C835000800093D0080B485B000AF78604C
:102D4C000A4B1B680A4AA2FB03235B0A7A6802FB44
:102D5C0003F3FB6000BFFB685A1EFA60002BF9D12D
:102D6C0000BF00BF1437BD4680BC70473C0000203C
:102D7C00D34D621080B582B000AF78607B68002BB9
:102D8C0001D1012341E07B6893F83D30DBB2002B8D
:102D9C0006D17B68002283F83C207868FDF72EFF73
:102DAC007B68022283F83D207B681A687B680433B9
:102DBC001946104600F056FA7B68012283F846202B
:102DCC007B68012283F83E207B68012283F83F2038
:102DDC007B68012283F840207B68012283F8412024
:102DEC007B68012283F842207B68012283F8432010
:102DFC007B68012283F844207B68012283F84520FC
:102E0C007B68012283F83D20002318460837BD4615
:102E1C0080BD000080B485B000AF78607B6893F80B
:102E2C003D30DBB2012B01D0012335E07B6802225F
:102E3C0083F83D207B681B68DA687B681B6842F06E
:102E4C000102DA607B681B68164A934209D07B68E2
:102E5C001B68B3F1804F04D07B681B68124A934205
:102E6C0011D17B681B689B6803F00703FB60FB6850
:102E7C00062B10D07B681B681A687B681B6842F0B5
:102E8C0001021A6007E07B681B681A687B681B6884
:102E9C0042F001021A60002318461437BD4680BC6C
:102EAC00704700BF002C01400004004080B584B086
:102EBC0000AF78607B681B68DB68FB607B681B6815
:102ECC001B69BB60BB6803F00203002B20D0FB68BE
:102EDC0003F00203002B1BD07B681B686FF002020F
:102EEC001A617B6801221A777B681B689B6903F067
:102EFC000303002B03D0786800F098F905E078689C
:102F0C0000F08BF9786800F09AF97B6800221A7748
:102F1C00BB6803F00403002B20D0FB6803F0040310
:102F2C00002B1BD07B681B686FF004021A617B6856
:102F3C0002221A777B681B689B6903F44073002B91
:102F4C0003D0786800F072F905E0786800F065F954
:102F5C00786800F074F97B6800221A77BB6803F07C
:102F6C000803002B20D0FB6803F00803002B1BD0B8
:102F7C007B681B686FF008021A617B6804221A7761
:102F8C007B681B68DB6903F00303002B03D07868B4
:102F9C0000F04CF905E0786800F03FF9786800F033
:102FAC004EF97B6800221A77BB6803F01003002BE4
:102FBC0020D0FB6803F01003002B1BD07B681B6830
:102FCC006FF010021A617B6808221A777B681B6805
:102FDC00DB6903F44073002B03D0786800F026F90A
:102FEC0005E0786800F019F9786800F028F97B683A
:102FFC0000221A77BB6803F00103002B0CD0FB688E
:10300C0003F00103002B07D07B681B686FF00102F3
:10301C001A617868FDF7EEFABB6803F08003002BA9
:10302C000CD0FB6803F08003002B07D07B681B6877
:10303C006FF080021A61786800F06FFABB6803F0D9
:10304C004003002B0CD0FB6803F04003002B07D08F
:10305C007B681B686FF040021A61786800F0F8F822
:10306C00BB6803F02003002B0CD0FB6803F020039B
:10307C00002B07D07B681B686FF020021A61786800
:10308C0000F042FA00BF1037BD4680BD80B584B059
:10309C0000AF786039600023FB737B6893F83C3099
:1030AC00012B01D10223B4E07B68012283F83C2080
:1030BC007B68022283F83D207B681B689B68BB60A1
:1030CC00BB6823F07703BB60BB6823F47F43BB6012
:1030DC007B681B68BA689A603B681B68B3F5005F35
:1030EC003ED0B3F5005F00F28780B3F5805F00F04F
:1030FC008680B3F5805F7FD8702B1AD0702B7BD86D
:10310C00602B50D0602B77D8502B3CD0502B73D8E1
:10311C00402B58D0402B6FD8302B64D0302B6BD831
:10312C00202B60D0202B67D8002B5CD0102B5AD0D2
:10313C0062E07B6818683B6899683B685A683B6832
:10314C00DB6800F06AF97B681B689B68BB60BB6836
:10315C0043F07703BB607B681B68BA689A604FE0EA
:10316C007B6818683B6899683B685A683B68DB6801
:10317C0000F053F97B681B689A687B681B6842F403
:10318C0080429A603CE07B6818683B6859683B68F1
:10319C00DB681A4600F0CAF87B681B685021184699
:1031AC0000F021F92CE07B6818683B6859683B6893
:1031BC00DB681A4600F0E8F87B681B68602118464B
:1031CC0000F011F91CE07B6818683B6859683B6893
:1031DC00DB681A4600F0AAF87B681B684021184689
:1031EC0000F001F90CE07B681A683B681B68194613
:1031FC00104600F0F8F803E00123FB7300E000BF79
:10320C007B68012283F83D207B68002283F83C20F8
:10321C00FB7B18461037BD4680BD80B483B000AF31
:10322C00786000BF0C37BD4680BC704780B483B05B
:10323C0000AF786000BF0C37BD4680BC704780B4CF
:10324C0083B000AF786000BF0C37BD4680BC7047C0
:10325C0080B483B000AF786000BF0C37BD4680BC33
:10326C007047000080B485B000AF786039607B682F
:10327C001B68FB607B682B4A934207D07B68B3F1D9
:10328C00804F03D07B68284A934208D1FB6823F017
:10329C007003FB603B685B68FA681343FB607B68F8
:1032AC00204A934207D07B68B3F1804F03D07B68F0
:1032BC001D4A934208D1FB6823F44073FB603B68C2
:1032CC00DB68FA681343FB60FB6823F080023B6801
:1032DC005B691343FB607B68FA681A603B689A6809
:1032EC007B68DA623B681A687B689A627B680D4A75
:1032FC00934203D13B681A697B681A637B6801228D
:10330C005A617B681B6903F00103002B05D07B68B5
:10331C001B6923F001027B681A6100BF1437BD469C
:10332C0080BC7047002C01400004004080B487B082
:10333C0000AFF860B9607A60FB681B6A7B61FB6860
:10334C001B6A23F00102FB681A62FB689B693B61F4
:10335C003B6923F0F0033B617B681B013A69134323
:10336C003B617B6923F00A037B617A69BB68134379
:10337C007B61FB683A699A61FB687A691A6200BFE3
:10338C001C37BD4680BC704780B487B000AFF86076
:10339C00B9607A60FB681B6A7B61FB681B6A23F06F
:1033AC001002FB681A62FB689B693B613B6923F462
:1033BC0070433B617B681B033A6913433B617B6938
:1033CC0023F0A0037B61BB681B017A6913437B610B
:1033DC00FB683A699A61FB687A691A6200BF1C370C
:1033EC00BD4680BC704780B485B000AF7860396052
:1033FC007B689B68FB60FB6823F07003FB603A689A
:10340C00FB68134343F00703FB607B68FA689A6020
:10341C0000BF1437BD4680BC704780B487B000AF86
:10342C00F860B9607A603B60FB689B687B617B6984
:10343C0023F47F437B613B681A027B681A43BB68A9
:10344C0013437A6913437B61FB687A699A6000BF06
:10345C001C37BD4680BC704780B485B000AF786027
:10346C0039607B6893F83C30012B01D1022341E099
:10347C007B68012283F83C207B68022283F83D2084
:10348C007B681B685B68FB607B681B689B68BB6028
:10349C00FB6823F07003FB603B681B68FA681343FE
:1034AC00FB607B681B68FA685A607B681B68144A6F
:1034BC00934209D07B681B68B3F1804F04D07B68C2
:1034CC001B68104A93420CD1BB6823F08003BB608D
:1034DC003B685B68BA681343BB607B681B68BA685F
:1034EC009A607B68012283F83D207B68002283F878
:1034FC003C20002318461437BD4680BC704700BFE3
:10350C00002C01400004004080B483B000AF786010
:10351C0000BF0C37BD4680BC704780B483B000AF91
:10352C00786000BF0C37BD4680BC704770B5002674
:10353C000C4D0D4C641BA410A64209D100F022F8CE
:10354C0000260A4D0A4C641BA410A64205D170BD7E
:10355C0055F8043B98470136EEE755F8043B98477D
:10356C000136F2E7CC350008CC350008CC35000824
:10357C00D035000803460244934200D1704703F84B
:10358C00011BF9E7F8B500BFF8BC08BC9E467047B4
:0C359C00F8B500BFF8BC08BC9E467047A4
:1035A80000000000000000000102030406070809EB
:1035B80002030405060708090A0B0C0D0E0F10106C
:0435C80001020000FC
:0435CC0031010008C1
:0435D0000D010008E1
:1035D40001000000010000000100000001000000E3
:1035E40001000000010000000100000001000000D3
:1035F40001000000010000000100000001000000C3
:10360400C8000000C8000000C800000000127A00D2
:0836140010000000010000009D
:0400000508001F19B7
:00000001FF
